:020000040800F2
:10000000F865002055020008790C0008D10B0008A3
:10001000750C0008BD080008EB1400080000000083
:100020000000000000000000000000009D0100082A
:10003000C108000800000000F10100080D100008D0
:100040006F0200086F0200086F0200086F020008CC
:100050006F0200086F0200086F0200086F020008BC
:100060006F0200086F0200086F0200086F020008AC
:100070006F0200086F0200086F0200086F0200089C
:100080006F0200086F0200086F0200086F0200088C
:100090006F0200086F0200086F0200086F0200087C
:1000A0006F0200086F0200086F0200086F0200086C
:1000B0006F0200086F0200086F0200086F0200085C
:1000C0006F0200086F0200086F0200086F0200084C
:1000D0006F02000811120008991200086F02000850
:1000E0006F0200086F0200086F0200086F0200082C
:1000F0006F0200086F0200086F0200086F0200081C
:100100006F0200086F0200086F0200086F0200080B
:10011000851000086F0200086F0200086F020008D7
:100120006F0200086F0200086F0200086F020008EB
:100130006F0200086F0200086F0200086F020008DB
:100140006F0200086F0200086F0200086F020008CB
:100150006F0200086F0200086F0200086F020008BB
:100160006F0200086F0200086F0200086F020008AB
:100170006F0200086F0200086F0200086F0200089B
:100180006F0200086F020008DFF80CD000F0C2FA1E
:1001900000480047891E0008F86500202A4B1968AE
:1001A0000868B0E8F04F80F30988BFF36F8F4FF015
:1001B000000080F3118870470000000006480068C6
:1001C000006880F3088862B661B6BFF34F8FBFF353
:1001D0006F8F00DF00BF00BF08ED00E0DFF80C000C
:1001E000016841F470010160704700BF88ED00E0D4
:1001F000EFF30980BFF36F8F134B1A681EF0100FD7
:1002000008BF20ED108A20E9F04F106008B44FF0CD
:10021000500080F31188BFF34F8FBFF36F8F03F04F
:1002200009F94FF0000080F3118808BC19680868CC
:10023000B0E8F04F1EF0100F08BFB0EC108A80F34A
:100240000988BFF36F8F70478C000020EFF30580A3
:10025000704700000648804706480047FEE7FEE773
:10026000FEE7FEE7FEE7FEE7FEE7FEE7FEE7FEE766
:100270001D1000088901000800487047FC43000871
:1002800040EA01039B0703D009E008C9121F08C018
:10029000042AFAD203E011F8013B00F8013B521E98
:1002A000F9D27047D2B201E000F8012B491EFBD20F
:1002B00070470022F6E710B513460A460446194671
:1002C000FFF7F0FF204610BD30B505462A460B4625
:1002D00012F8010B13F8014B08B1A042F8D01CB181
:1002E000002802D06D1CF1E7284630BD421C10F8F2
:1002F000011B0029FBD1801A704730B5044600204D
:10030000034600E05B1C934203D2E05CCD5C401BE3
:10031000F8D030BD30B50B46014600202022012424
:1003200009E021FA02F59D4205D303FA02F5491BC3
:1003300004FA02F52844151EA2F10102F1DC30BDD9
:100340002DE9F05F0546002092469B46884606460A
:10035000814640241BE0284641464746224600F09D
:10036000FAF953465A46C01A914110D3114618461D
:10037000224600F0E1F92D1A67EB01084F462246AC
:100380000120002100F0D8F917EB00094E41201E92
:10039000A4F10104DFDC484631462A464346BDE865
:1003A000F09F2DE9FE4F804681EA0300C00F0C4606
:1003B000009021F0004123F00045B8EB0200A94174
:1003C00005D24046214690461C460B46024623F085
:1003D0000040104347D0270DC7F30A00C3F30A516A
:1003E0000290401A019040286BDAC3F3130040F4E6
:1003F000801B0098924620B10023D2EB030A63EBE6
:100400000B0B01985946C0F14002504600F094F998
:1004100006460D4650465946019A00F0ACF910EBDD
:1004200008006141002487EA115284EAE7731A4305
:1004300040D0009A62B3019A012A4FEA075215DCB4
:10044000001B61EB02014FF0004202EA0752CDE9C6
:100450000042001C41F5801132462B4600F0ACF9F9
:1004600003B0BDE8F08F40462146F9E7001B61EB81
:100470000201001C41F5801300185B412018A2F511
:10048000001747EB030140EAD570B6196D4111E042
:100490006D084FEA360645EAC0754FEA0752001B61
:1004A00061EB0201001C41F5801149084FEA300060
:1004B0000019514132462B4603B0BDE8F04F00F021
:1004C0006CB90098012240000023D0EB020263EBDC
:1004D000E073009821464FEAE074B8EB000061EB4E
:1004E0000401E9E783F000435BE781F0004158E74E
:1004F0002DE9FE4F81EA030404F0004421F000419D
:1005000000944FF0000B23F0004350EA01045ED04A
:1005100052EA03045BD0C3F30A54C1F30A552C44D6
:10052000A4F2F3340194A0FB0254C1F3130141F48B
:100530008011C3F3130343F4801301FB024400FB57
:10054000034E840A970A44EA815447EA8357A4FB7E
:10055000076802958D0A05FB07854FEA932C04FB7B
:100560000C542705029D4FEA065847EA1637B5EBAB
:1005700008056EEB070C870E920E47EA811742EAD8
:100580008312A7FB0201B6EB0B0164EB00042B0DF9
:1005900043EA0C335E1844EB1C50DA465146E7FB45
:1005A0000201C5F313044FEA0B3343EA14534FEA35
:1005B0000432019C43EA0603A4F10C040294009C5B
:1005C000CDE900B400F0F8F803B0BDE8F08F0020EA
:1005D0000146F9E72DE9F04D81EA030404F0004BF0
:1005E00021F0004514464FF0000A23F0004150EA84
:1005F000050220D054EA01021DD0C5F30A57024675
:10060000C5F31303C1F31300C1F30A5640F4801578
:1006100043F48013A7EB0608101BD64608F2FD38FA
:1006200073EB050002D308F1010801E092185B4169
:10063000B8F1000F03DA00200146BDE8F08D00207C
:100640004FF48011064684460EE0171B73EB050736
:1006500005D3121B63EB050306434CEA010C490862
:100660004FEA300092185B4150EA0107EDD152EA9F
:10067000030012D082EA040083EA0501084305D092
:10068000101BAB4106D20122002306E000224FF0EE
:10069000004302E06FF0010253101AEB06004CEB2E
:1006A000085110EB0A0041EB0B01BDE8F04D00F0E2
:1006B00074B8C1F30A52C1F3130140F2FF3341F49D
:1006C00080119A4202DA00200146704740F233431B
:1006D0009A42A2F2334202DC524200F03CB800F0EF
:1006E0002BB8000030B5041E71F1000404DB4FF09C
:1006F0000044404264EB0101141E73F1000405DB69
:100700001C464FF00043524263EB0403994208BF7A
:10071000904230BD064C074D06E0E06840F0010312
:1007200094E8070098471034AC42F6D3FFF730FD49
:100730000044000820440008202A04DB203A00FA84
:1007400002F1002070479140C2F1200320FA03F328
:10075000194390407047202A04DB203A21FA02F026
:100760000021704721FA02F3D040C2F120029140EB
:10077000084319467047202A06DBCB17203A41FA76
:1007800002F043EAE07306E041FA02F3D040C2F11E
:100790002002914008431946704710B5141E73F1AA
:1007A000000408DA401C41F1000192185B411A4331
:1007B00001D120F0010010BD2DE9F04D92469B467D
:1007C00011B1B1FA81F202E0B0FA80F22032904623
:1007D000FFF7B2FF04460F4640EA0A0041EA0B0168
:1007E00053465A46084313D0114653EA010019D024
:1007F000C8F140025046FFF7AEFF05460E46504690
:1008000059464246FFF798FF084305D0012004E00F
:1008100020463946BDE8F08D0020054346EAE076E3
:100820002C4337430A986305E40AA0EB0800002232
:10083000FD0A44EA47540A3002D500200146E9E7A0
:10084000010510196941DDE9084500196941BDE854
:10085000F04DA2E770B504460D462146074800F06A
:10086000FFFA08B9012070BD00232A461946044842
:10087000006802F035FF0020F5E700006401002069
:100880004C00002000240EE00748FFF72FFD05462E
:100890004FF47A72294605A000F08EFC04462146EA
:1008A00003A000F047FEEFE7784300084154000042
:1008B0007265742069732025640D0A0000BFFEE78D
:1008C0007047000070B50646002401253FE00DB9D1
:1008D000002401251E4908194FF0FF31FFF7BAFF28
:1008E000002834D0002C31D0601E1949085C0D2836
:1008F0002CD10846005D0A2828D1084600F0ACF843
:1009000000B170BD13A11248FFF7DEFC30B1621CCC
:10091000C8210F4800F0BAF8002518E00C4800F094
:1009200059F9012805D100F0E1FA002500F03CFC5E
:100930000DE0074800F04EF930B9002000F0D6FA7B
:10094000002500F031FC02E0641C00E0641CBEE7FE
:10095000D86100202B4950442C00000010B5032220
:100960000021012002F082FE0149086010BD000054
:100970004C000020F0B50A4600210023002400BFEF
:100980003DE0012505FA01F3156805EA03049C42E0
:1009900034D105684F000326BE40B5430560157984
:1009A0004E00B5400668354305601579012D02D02B
:1009B0001579022D16D185684F000326BE40B54338
:1009C000856055794E00B540866835438560456839
:1009D00001268E40B5434560456896798E40B6B293
:1009E00035434560C5684F000326BE40B543C5602A
:1009F000D5794E00B540C6683543C560491C1029FD
:100A0000BFD3F0BDF0B5002300244D07ED0E02FA70
:100A100005F3CE1000F1200555F826504E07F70ECD
:100A20000F26BE40B543CF1000F1200646F82750F0
:100A3000CE1000F1200555F8265045EA0304CE10EB
:100A400000F1200545F82640F0BD0000014800688F
:100A5000704700006800002010B504460748006891
:100A600050B107A105480068FFF72EFC20B120789F
:100A70003E2801D1012010BD0020FCE76C000020C1
:100A800041542B43495053454E443D002DE9F74F07
:100A9000064690460027002400F0B2FBB8F1000F94
:100AA00002DC0020BDE8FE8F03F0CEF981466DE048
:100AB00027B1012F1AD0022F63D13CE0402C13DA6A
:100AC000444511DA305D3E49085500213C4A601C1E
:100AD00011543CA11046FFF7F7FB18B1012704F1B0
:100AE000010B02E0641C00E003274BE0402C20DAFD
:100AF000305D3A281BD15D460CE0705D30383349DB
:100B00000968896901EB810100EB41002F490968FF
:100B100088616D1CA542F0DB00252C4800688069C7
:100B20002044401C29490968C861022702E0641C6E
:100B300000E0032726E0254800684069A8420DDD53
:100B4000402C0BDA21480068C069A84206DD305D00
:100B50001E49096848556D1C641C11E003271B4899
:100B60000068C069401EA84205D1002017490968E5
:100B700081F8200004E001201449096881F8200070
:100B800000E000BF00BF032F00D101E0042F8FD190
:100B900000BF03F059F98246AAEB09004FF47A71BD
:100BA0004843B0FBF1F10198814202D34FF0FF308E
:100BB00078E7032F01D1012074E7002072E70000DD
:100BC000840D00202B4950442C00000060000020C0
:100BD00000BFFEE730B5A1B0054600241DB1284690
:100BE000FFF784FB10B9002021B030BD03E0285D81
:100BF00001A90855641CFFF73FFB0068295D405CB4
:100C000000F001000028F2D0002001A908550222BE
:100C100008A101A8FFF771FB08B90120E4E705224C
:100C200005A101A8FFF769FB08B90020DCE7012056
:100C3000DAE700004F4B00004552524F52000000CF
:100C40001CB50121102000F05FF800208DF8040091
:100C50008DF8060048F28010009001208DF8070002
:100C600000208DF8050069460148FFF783FE1CBD92
:100C70000010024000BFFEE77047000070B5002181
:100C800000230F22C4781CB3174C246804F4E064DA
:100C9000C4F5E064C4F30721C1F10404E3B20A41DE
:100CA00044789C40E1B28478144021430C07210E23
:100CB0000E4C05786155047804F01F050124AC4002
:100CC00005786D11AD0005F1E025C5F8004109E09A
:100CD000047804F01F050124AC40054D0678761118
:100CE00045F8264070BD00000CED00E000E400E097
:100CF00080E100E002490143024A116070470000B0
:100D00000000FA050CED00E029B1064A1268024322
:100D1000044B1A6004E0034A12688243014B1A60D4
:100D2000704700003038024029B1064A1268024379
:100D3000044B1A6004E0034A12688243014B1A60B4
:100D4000704700004038024029B1064A1268024349
:100D5000044B1A6004E0034A12688243014B1A6094
:100D60007047000044380240F0B500210022002402
:100D7000022500260223324F3F6807F00C0121B103
:100D8000042905D0082937D105E02E4F076036E049
:100D90002D4F076033E02A4F3F1F3F68C7F380564F
:100DA000274F3F1F3F6807F03F036EB1264FB7FB49
:100DB000F3F7DFF88CC0ACF1040CDCF800C0CCF326
:100DC000881C07FB0CF40CE01E4FB7FBF3F7DFF8B1
:100DD00070C0ACF1040CDCF800C0CCF3881C07FB3D
:100DE0000CF4174F3F1F3F68C7F301477F1C7D007E
:100DF000B4FBF5F7076002E0124F076000BF00BFC9
:100E00000F4F3F6807F0F0010909104F7A5C07683F
:100E1000D74047600A4F3F6807F4E051890A0B4FFB
:100E20007A5C4768D7408760054F3F6807F46041A8
:100E3000490B064F7A5C4768D740C760F0BD000099
:100E4000083802400024F40000127A007A000020E2
:100E50000022A0F80024A0F80224A0F8041470478F
:100E600070B504460D46B4F80004C0F30E00B4F8A3
:100E70000214C1F30E01884202D14FF0FF3070BD61
:100E8000B4F80004C0F30E00205C2870297809A093
:100E900000F050FBB4F80004C0F30E00401CB4F99D
:100EA000041490FBF1F201FB1200A4F800040020EE
:100EB000E5E700002563000030B5B0F80234C3F365
:100EC0000E035B1CB0F9044493FBF4F504FB1532EC
:100ED000B0F80034C3F30E03934206D0B0F80234E6
:100EE000C3F30E03C154A0F8022430BD01490860C9
:100EF00070470000680000200CB5002001900090B1
:100F00003448006840F480303249086000BF3148FE
:100F1000006800F4003000900198401C0190009897
:100F200018B90198B0F5A04FF1D12A48006800F433
:100F3000003010B10120009001E0002000900098E6
:100F4000012846D123484030006840F080502149B4
:100F5000403108602048006840F440401E49086065
:100F60001C48083000681B490831086008460068C2
:100F700040F4004008600846006840F4A050086053
:100F80001648091F0860081F006840F08070091F9C
:100F9000086000BF0F48006800F000700028F9D01A
:100FA00040F205700E4908600A480830006820F0D9
:100FB00003000849083108600846006840F0020054
:100FC000086000BF03480830006800F00C000828E3
:100FD000F8D10CBD003802400070004008544007B2
:100FE000003C0240042808D14FF0E021096941F09B
:100FF00004014FF0E022116107E04FF0E0210969A0
:1010000021F004014FF0E0221161704710B502F0A9
:101010000BFF012801D002F00FFB10BD10B51548E1
:10102000006840F47000134908601348006840F0FD
:1010300001001149086000200F49083108600E487E
:1010400000680E4908400C4908600D48091D0860F9
:10105000081F006820F48020091F0860002006494E
:101060000C310860FFF748FF4FF0006001498039FC
:10107000086010BD88ED00E000380240FFFFF6FE7A
:101080001030002410B500201049086040F22551AE
:101090000F4800F068F9B8B10D4800F01DFAC4B26D
:1010A00021460C48FFF708FF08490B48006802F08A
:1010B000BDFD0648006838B14FF080500749086010
:1010C000BFF34F8FBFF36F8F10BD0000580000209B
:1010D000004C0040640100204C00002004ED00E0C2
:1010E00000B587B001210420FFF70EFE0121C804DE
:1010F000FFF71AFE08220A212448FFF783FC082282
:101100000B212248FFF77EFC02208DF818000020FA
:101110008DF81A004FF44060059001208DF81B00F7
:1011200003208DF819004FF4E13001900020ADF854
:1011300010000C20ADF80E000020ADF80C00ADF84A
:101140000A00ADF8080005A91048FFF713FC01A933
:101150000F4800F057F901210D4800F0EBF801228B
:1011600040F225510A4800F028F934208DF800009B
:101170000E208DF8010000208DF8020001208DF86E
:1011800003006846FFF77AFD07B000BD0008024083
:10119000004C004010B5034800F0A8FE014800F0E4
:1011A000B5FE10BD6400002010B5024800F0C8FE76
:1011B00010BD0000640000202DE9F041044688467F
:1011C000154621460B4800F0A1F90BA1094800F093
:1011D0009DF92946094800F0A2FE0646012E05D1D8
:1011E000FFF734FC07463846BDE8F0814FF0FF308A
:1011F000FAE70000004C00400D0A000064000020E7
:10120000142002490968486170470000600000200E
:1012100010B540F225511D4800F0A5F810B31B4849
:1012200000F05AF9C4B21A48008800F40040C8B966
:101230001748008800F4804060B10A2C03D00020D9
:101240001349088020E01248008840F4004010490B
:10125000088019E00D2C06D10D48008840F480402C
:101260000B49088010E00A480088C0F30D000949C6
:101270000C5407480088401C05490880084600882F
:10128000C72801DD0020088010BD000000100140CB
:1012900078000020C40D002010B540F2255102480E
:1012A00000F061F810BD00000044004000B587B0B8
:1012B00001210846FFF728FD01214804FFF734FD0E
:1012C000072202211948FFF79DFB07220321174837
:1012D000FFF798FB02208DF8180000208DF81A0007
:1012E0000C20059001208DF81B0000208DF81900BE
:1012F0004FF4E13001900020ADF810000C20ADF863
:101300000E000020ADF80C00ADF80A00ADF80800A2
:1013100005A90648FFF72EFB01A9054800F072F861
:101320000121034800F006F807B000BD00000240AC
:101330000044004021B1828942F40052828104E0DD
:1013400082894DF6FF731A40828170470246002061
:10135000B1F5007F00D100BF13880B400BB1012015
:1013600000E00020704770B50246002400230025ED
:10137000002040F66A16B14200D100BFC1F3421509
:1013800001F01F03012606FA03F3012D02D196890D
:10139000334006E0022D02D1168A334001E0968ADE
:1013A00033400C12012606FA04F41688344013B1B7
:1013B0000CB1012000E0002070BDF0B50346002410
:1013C00000260025002040F66A17B94200D100BF70
:1013D0001846C1F3421401F01F06012707FA06F56B
:1013E000012C01D10C3004E0022C01D1103000E0BE
:1013F00014301AB107682F43076002E00768AF4353
:101400000760F0BD2DE9FF4705460E460024A146C2
:1014100000BFA046B08900B100BF2C8A24F440541C
:10142000F08804432C82AC8941F20C608443B0887C
:1014300031890843718908430443AC81AC8A24F4A0
:101440004074B0890443AC826846FFF78DFC2048A5
:10145000854202D01F48854202D1DDF80C9001E0A0
:10146000DDF80890A88900F4004040B109EBC900FC
:1014700000EB091031684900B0FBF1F707E009EB18
:10148000C90000EB091031688900B0FBF1F7642056
:10149000B7FBF0F004012009642101FB1078A88952
:1014A00000F4004040B1322000EBC800B0FBF1F086
:1014B00000F00700044308E0322000EB081064212C
:1014C000B0FBF1F000F00F0004432C81BDE8FF8772
:1014D000001001400014014001468888C0F3080054
:1014E0007047C1F308028280704700BFFEE770B505
:1014F00004460D4629462046FFF7F3FF00BF802132
:101500002046FFF723FF0128F9D170BD70B50646CC
:101510000C4600250CB9002070BD05E028466D1C66
:10152000215C3046FFF7E3FF605D0028F6D1012023
:10153000F2E700000FB4054B10B503A9044A029866
:1015400000F0DAF810BC5DF814FB00006D1E000816
:101550007400002002E008C8121F08C1002AFAD156
:1015600070477047002001E001C1121F002AFBD123
:10157000704700002DE9FF5F82B00021DDE90430F3
:10158000020DDDF840B0034318D044F61050A2F22B
:10159000FF3242431514119801281FD0A5EB0B0010
:1015A000401C5FEA000A4FF000064E4FDFF838910A
:1015B000B046504615D5CAF1000413E01198012435
:1015C0004AA3012801D16FEA0B010298119AC0E9E0
:1015D0000031C0E9024206B0BDE8F09FCBF1000047
:1015E000DFE704460021404A491842EB0450CDE9A8
:1015F000001012E0E00707D032463B46404649461D
:10160000FEF776FF8046894632463B46104619462D
:10161000FEF76EFF06460F466410002CEAD1DDE9A6
:101620000401DDE90023BAF1000F06DAFEF760FFDE
:1016300042464B46FEF75CFF05E0FEF7CBFF424615
:101640004B46FEF7C7FF04460E460022284BFFF725
:1016500049F803D84FF0FF30014607E00022254B40
:1016600020463146FEF79DFEFFF723F8102409E0DF
:10167000002C0ADB0A220023FEF762FE039B3032B5
:101680001A55641E50EA0102F2D1641C039AC4F197
:1016900011031444119A012A03D0012208430DD1E9
:1016A0000AE0084304D000204FF0110B119072E7BC
:1016B000A3EB0B056D1E0DE05B4504DD4FF0000252
:1016C00005F1010504E003DA4FF00002A5F1010580
:1016D000002AECD002981199C0E90231C0E9004516
:1016E00079E70000000014400000F03F30000000E7
:1016F0000000F0430000E03F2DE9FF4F95B09B460E
:101700008946064600250FE2252877D10024274682
:10171000F84A0121059400E0044316F8013F203BFC
:1017200001FA03F01042F7D130782A2811D06FF077
:101730002F033078A0F13002092A16D8059A44F018
:10174000020402EB820203EB42021044761C059075
:10175000EFE759F8042B0592002A03DA504244F4CB
:101760000054059044F00204761C30782E2816D1DF
:1017700016F8010F44F004042A280DD06FF02F0250
:101780003078A0F13003092B09D807EB870302EB6F
:101790004303C718761CF3E759F8047B761C3078AE
:1017A0006C280FD006DC4C2817D068280DD06A288A
:1017B00014D104E0742810D07A280FD10DE044F43D
:1017C00000140AE044F4801401E044F440147278F8
:1017D000824202D104F58014761C761C307866288B
:1017E0000BD013DC582877D009DC002875D04528A9
:1017F000F6D04628F4D047281AD19DE118E0632896
:1018000035D0642879D0652812D195E1702873D03D
:1018100008DC6728F1D069286FD06E280DD06F28BA
:1018200006D1B5E073282CD0752875D0782874D0EF
:101830005A46179990476D1C75E1C4F3025002286F
:1018400009D003280DD0D9F8001004280DD00D6060
:1018500009F1040967E1D9F80010EA17C1E900525B
:10186000F6E7D9F800100D80F2E70D70F0E719F8EF
:10187000041B8DF8001000208DF80100EA460120BD
:1018800003E059F804AB4FF0FF3061074FF000015F
:1018900002D40DE008F101018846B9420FDA804513
:1018A000F8DB1AF808100029F4D108E008F101016A
:1018B00088468142FADB1AF808100029F6D105980B
:1018C0005B46A0EB080721463846179A00F094FAC9
:1018D000284400EB080507E04DE029E10DE01AF887
:1018E000010B5A4617999047B8F10108F7D25B46A9
:1018F00021463846179A13E142E00A220092C4F3C7
:1019000002524FF0000A022A08D059F804CB032AE9
:101910004FEAEC710AD00DE029E02AE009F1070155
:1019200021F00702F2E802C1914609E00FFA8CFCAF
:101930004FEAEC71042A03D14FFA8CFC4FEAEC71A8
:10194000002907DA0A460021DCF1000C61EB0201F4
:101950002D2202E0220504D52B228DF8042001223D
:1019600003E0E20701D02022F7E7904659E00A2180
:1019700002E010220DE010214FF0000A00910BE070
:1019800010224FF0000A44F004040827009203E0FC
:1019900008224FF0000A0092C4F30252022A05D036
:1019A00059F804CB0021032A08D009E009F1070106
:1019B00021F00702F2E802C1914605E01FFA8CFC13
:1019C000042A01D10CF0FF0C4FF00008220728D5A3
:1019D000702806D0009B83F0100353EA0A0305D059
:1019E0000EE040228DF80420012208E05CEA0102AA
:1019F00006D030228DF804208DF805000222904692
:101A0000009B83F0080353EA0A030AD15CEA01024F
:101A100001D1620705D530228DF804204FF001086E
:101A20007F1E582804D034A003900EA802900DE029
:101A300036A0F9E753466046009AFEF781FC8446DB
:101A40000398825C0298401E029002705CEA0100DA
:101A5000F0D1029806A9081A00F1200A600702D501
:101A600024F4803400E00127574502DDA7EB0A008B
:101A700000E0002000EB0A01009005984144401A64
:101A80000590E00306D45B462146179A059800F0BE
:101A9000B3F90544002706E001A85A46C05D17992E
:101AA00090476D1C7F1C4745F6DBE0030CD55B4679
:101AB0002146179A059800F09FF9054404E030206C
:101AC0005A46179990476D1C0099481E00900029AE
:101AD000F5DC08E0029802995A460078491C029108
:101AE000179990476D1CBAF10001AAF1010AF1DCC7
:101AF00065E10000092801003031323334353637D2
:101B00003839616263646566000000003031323349
:101B100034353637383941424344454600000000E9
:101B200000F058F90544761C307800287FF4ECADBD
:101B300019B02846BDE8F08F620700D4062709F1E6
:101B4000070222F0070CFCE80223E14603F00048FC
:101B50005FEA080C02D00FF2702C0DE05FEA045C23
:101B600002D50FF2682C07E05FEAC47C02D00FF2C6
:101B7000602C01E0AFF2700C4FF0FF3823F000430F
:101B8000CDF850C065280CD006DC452809D0462881
:101B90001DD047283DD13DE0662818D067287ED16A
:101BA00038E00021112F01DB112000E0781CCDE985
:101BB000000106A90EA8FFF7DDFCDDE90F010E9A72
:101BC00003910021009207F1010A04914DE04FF0CA
:101BD00000400097CDE9011006A90EA8FFF7CAFC46
:101BE000DDE90F0203920E9B11990022DDF80CA093
:101BF0000093049211B9791C00EB010AB7EB0A00BB
:101C000004D4C0F1FF3007F1010A0490AAEB0700E9
:101C1000019044E0012F00DA01270021112F01DD9E
:101C2000112000E03846CDE9000106A90EA8FFF713
:101C3000A1FCDDE90F010E9A0391002104910092AD
:101C4000BA4621070CD40399514500DA8A46BAF105
:101C5000010F05DD009AAAF10101515C302908D07D
:101C6000B84202DA10F1040F06DA0121CDE90110C1
:101C700015E0AAF10101E9E7002805DC0499014417
:101C80000491AAEB000102E0411C514500DD8A46A7
:101C90000499401A401C01904FF000400290200728
:101CA00004D40198504501DBCDF8048000208DF864
:101CB0004F0002980DF14F07B0F1004F25D02B20B7
:101CC0000E9002984FF0020800280CDA4042029071
:101CD0002D200E9007E00A210298FEF71BFB303101
:101CE000029007F8011DB8F10001A8F10108F2DC2B
:101CF00002980028EFD1791E0E980870307800F015
:101D0000200040F0450007F8020D12A8C01B00F1AA
:101D100007081498007800B1012000EB0A0101982F
:101D200001EBE07105984144401A401E0590E00324
:101D300006D45B462146179A059800F05DF80544E5
:101D40001498007818B15A46179990476D1CE00313
:101D500024D55B462146179A059800F04DF80544B6
:101D60001CE00498002807DBDDE90301884203DD5D
:101D70000098405C179901E0179930205A46904727
:101D8000049805F10105401C04900198401E019043
:101D900004D12E205A46179990476D1CBAF10001C4
:101DA000AAF1010ADDDC05E017F8010B5A46179984
:101DB00090476D1CB8F10001A8F10108F4DC5B4606
:101DC0002146179A0598ABE62D0000002B00000075
:101DD000200000002DE9F041044600251E4617466C
:101DE000880404D405E039462020B0476D1C641EE9
:101DF000F9D52846BDE8F0812DE9F04104460025DB
:101E00001E469046C80301D5302700E020278804ED
:101E100004D505E041463846B0476D1C641EF9D52F
:101E20002846BDE8F081000070B504460420FFF7A5
:101E3000D9F80C48047025464FF47A7045430120C8
:101E4000094908804FF0E020006940F002004FF09F
:101E5000E021086108464561006940F00100086121
:101E600070BD0000700000207200002000BF054A15
:101E7000128802F04002002AF9D0C2B2014B1B1DA9
:101E80001A807047004400401CB54FF44070FEF7C4
:101E900031FFA820FFF7C8FF00F0D8F9FFF77AF963
:101EA000FEF75CFD08A10C48FFF730FB0B48012151
:101EB00064238022CDE9001009A10B4801F084FFC2
:101EC00001F05AFA00201CBD496E6974696C697A88
:101ED00065204F4B0D0A0000004400402400002004
:101EE0007374617274000000212C000810B5044660
:101EF00003220021012001F0B9FB206000231A46D3
:101F00001946206801F028FD002010BD10B50446D8
:101F100000235A1E1946206801F0E2FB10BD70B57F
:101F200004460D464FF47A7068434FF47A71B0FB63
:101F3000F1F6002332461946206801F0D1FB70BD4E
:101F400010B5044600231A461946206801F004FD26
:101F500010BD00002DE9F04105460E461C480768FB
:101F60001C480068001D00F0E7FE50B919480068E1
:101F700090F82C10012088401749096881431648C1
:101F80000160681C38B936B112480168091D134850
:101F900000F010FF1AE07C190E4800684460BC4253
:101FA00007D20C480168091D0D48006800F0E8FEE2
:101FB0000CE008480168091D0A48006800F0E0FECE
:101FC00009480068844201D207480460BDE8F081F6
:101FD000A00000208C000020A40000209C11002004
:101FE0009400002090000020BC00002010B50446A2
:101FF00000F0ECFE24480068401C23490860234898
:10200000006840B9214804600846006801280DD1E5
:1020100000F008FA0AE01E48006838B91B4800685A
:10202000C06AE16A884201D818480460194800680B
:10203000401C1849086008460068606494F82C1039
:102040000120884014490968084313490860E16A7F
:1020500001EB8101114A02EB8100211D00F0AAFE73
:1020600000F0F8FE0A48006868B108480068C06AD5
:10207000E16A884207D24FF0805009490860BFF3F7
:102080004F8FBFF36F8F10BD9C0000208C0000208D
:10209000A8000020B8000020A4000020CC0E0020E2
:1020A00004ED00E010B500F091FE10480068D0B9D2
:1020B0000F4800F055FE0F4800F052FE0C480E4944
:1020C00008600C480D49086000221021052001F02D
:1020D000CDFA064908600846006820B108A1034807
:1020E000006800F0ABFF00F0B5FE10BDD00000208E
:1020F000B0110020C4110020C8000020CC00002036
:10210000546D72510000000070B523E001F08AF9AF
:102110001348006808B9012000E00020054602F0DD
:102120000FF8BDB900F052FE0D48C068C468201D0C
:1021300000F002FE0B480068401E0A4908600A4889
:102140000068401E0849086000F084FE204600F048
:1021500060F800BF044800680028D7D170BD0000B7
:10216000881100209C0000209800002070B50446D3
:102170000D46206C70B1216CE0680844E060616835
:10218000E068884201D32068E0602846226CE1685C
:10219000FEF776F870BD2DE9F04104460F4615466E
:1021A0004FF00008A66B206C40B9206860BB6068E7
:1021B00001F000FF80460020606025E07DB93946CF
:1021C000226CA068FEF75CF8216CA0680844A0604F
:1021D000D4E90110884217D32068A06014E0394682
:1021E000226CE068FEF74CF8216CE068401AE06071
:1021F0002168E068884203D2216C6068401AE06080
:10220000022D01D106B1761E701CA0634046BDE8C8
:10221000F08110B50446206B00F054FE204600F01B
:1022200051FE10BD0146084A126812680AB901221F
:1022300000E000220A600A6822B9034A1268D268E4
:10224000106800E000207047C800002010B54FF46F
:10225000E13000F01BFDFEF7F3FCFFF727F8FEF777
:102260003FFF4FF480610448FEF7F2FD142103485C
:10227000FEF7EEFD10BD0000640100206A0500209D
:1022800030B54FF4A043174800F007042CB1C01D2F
:1022900020F00700134C041B1B1B0246124C22604B
:1022A0000024114D6C60D018083820F007000F4C46
:1022B000206000240D4D2D686C600C4D2D682C6045
:1022C0001146441A4C60094C24680C60084D4C6857
:1022D0002C60084D4C682C604FF00044064D2C607B
:1022E00030BD0000D8110020DC000020E4000020F8
:1022F000EC000020E8000020F000002000BFFFF705
:1023000003FF064800680128F9D94FF080500449BE
:102310000860BFF34F8FBFF36F8FF0E7CC0E002044
:1023200004ED00E02DE9F04106460D4617469846BB
:10233000069C0DB9246000E02760E6632564012156
:10234000204601F0B1FA84F850800020A064BDE876
:10235000F08100002DE9F05F82460F4690469B46D3
:102360000A9E0C9C4FEA8801A522206BFDF79AFF7C
:10237000A8F10100216B01EB800929F0070909F0A0
:10238000070008B9012000E0002028B940F22B32F4
:102390001BA120A0FFF7CEF8002507E0795D04F12E
:1023A00034004155785D00B902E06D1C102DF5D365
:1023B00000BF002143200155202E00D31F26E662D6
:1023C000E66400202065201D00F0D7FC04F1180011
:1023D00000F0D3FC2461C6F12000A06164620020FB
:1023E000606584F858005A465146484600F002FCA1
:1023F00020600B9808B10B980460BDE8F09F0000C6
:102400002E2E5C4672656552544F535C7461736B3B
:10241000732E63004572726F723A25732C25640D1A
:102420000A00000010B5002407E004EB84010F4A05
:1024300002EB810000F094FC641C202CF5D30C48C6
:1024400000F08EFC0B4800F08BFC0B4800F088FC81
:102450000A4800F085FC0A4800F082FC044809495B
:10246000086004480849086010BD0000CC0E002038
:102470004C110020601100207411002088110020F0
:102480009C110020900000209400002010B501460F
:10249000164800E0006803688B42FBD3024643689D
:1024A00013448B4204D143684C6823444360014683
:1024B0000A464B6813440468A34211D10C4C0368CC
:1024C0002468A34208D04B680468646823444B60C6
:1024D00003681B680B6005E0054B1B680B6001E09F
:1024E00003680B60884200D0016010BDDC00002052
:1024F000E40000202DE9F04104460D4616461F4633
:102500004FF0000865602461B5420CD8F01BA1694A
:10251000884202D34FF0010811E0211D09480068EC
:1025200000F02EFC0BE0BE4204D2BD4202D34FF0BD
:10253000010804E0211D0448006800F021FC404629
:10254000BDE8F081CC000020C800002070B5054631
:1025500000F03CFCA86B08B9012400E0002400F066
:1025600079FC204670BD70B5054600F02FFCA86BC5
:10257000E96B884201D1012400E0002400F06AFCEC
:10258000204670BD2DE9F3410D460098846C00276C
:102590002CB940F6CE121AA11EA0FEF7CBFFA06BFD
:1025A000E16B884201D2012000E0002028B940F60A
:1025B000CF1213A117A0FEF7BDFFA06BE16B8842FD
:1025C0001BD294F945602A4669462046FFF7E3FD91
:1025D0000746701C60B9606A08B9012000E000205D
:1025E00050B904F1240001F051FD28B1012703E0A6
:1025F000701C40B284F8450000BF3846BDE8FC813D
:102600002E2E5C4672656552544F535C717565752C
:10261000652E63004572726F723A25732C25640D26
:102620000A000000F8B505460F4613480068C06868
:10263000C468201D00F080FBE069012818D1A06962
:1026400041192B463A462046FFF754FF80B100203F
:1026500003462A4601460090204601F03BFE06460E
:102660002EB94FF4027205A10AA0FEF763FF00BF66
:102670002046616A8847F8BDC80000202E2E5C46BF
:1026800072656552544F535C74696D6572732E6345
:10269000000000004572726F723A25732C25640D9C
:1026A0000A000000F0B587B070E0039800280CDA4B
:1026B00004AE2EB940F2E7223AA140A0FEF73AFF5D
:1026C000D6E90020B168904700BF039800285DDB81
:1026D000059C606908B9012000E0002010B9201DA8
:1026E00000F02AFB02A800F0C7F8054603980A2864
:1026F0004AD2DFE800F00905072C2E4506082D2FE9
:1027000000BF00BF00BF00BF0498A2698118034644
:102710002A462046FFF7EEFEC0B12046616A884790
:10272000E069012812D1002000900498A1694218A4
:1027300000231946204601F0CDFD07462FB940F28F
:10274000213218A11DA0FEF7F5FE00BF1DE000BF5D
:102750001BE000BF0498A061A06908B1012000E05F
:10276000002028B94FF44E720EA114A0FEF7E2FE2D
:10277000A06941192B462A462046FFF7BBFE04E01C
:10278000204600F09FFB00E000BF00BF00231A4678
:1027900003A90E48006800F0A3FF002885D107B008
:1027A000F0BD00002E2E5C4672656552544F535C9E
:1027B00074696D6572732E63000000004572726F5C
:1027C000723A25732C25640D0A000000D000002009
:1027D000F8B505460C4600F025FE684600F04CF8BA
:1027E0000646009820BB44B9B54206D801F0A8FCC3
:1027F00031462846FFF716FF1CE03CB10E48006842
:10280000006808B9012000E000200446A91B224608
:102810000A48006800F028FC01F092FC50B94FF023
:10282000805007490860BFF34F8FBFF36F8F01E0FF
:1028300001F086FCF8BD0000CC000020D000002094
:1028400004ED00E00A490968096809B9012100E0BE
:10285000002121B14FF0FF31064A116006E0044922
:102860000968C968C868034A416811607047000078
:1028700090000020BC00002070B5044601F0E4FA8E
:10288000054607480068854204D200F00BF8012095
:10289000206001E00020206001480560284670BDEE
:1028A000D80000202DE9F8432DE021480068C068D9
:1028B00005681F480068C068C468201D00F03CFA25
:1028C0002046616A8847E06901281CD1A069461941
:1028D000AE4207D966602461211D1548006800F0EA
:1028E0004FFA10E0002003462A4601460090204699
:1028F00001F0F0FC07462FB940F292320DA113A06F
:10290000FEF718FE00BF0A480068006808B90120F9
:1029100000E000200028C8D00548D0F800800F480B
:102920000068034908600D48C0F80080BDE8F883DE
:10293000C80000202E2E5C4672656552544F535CD1
:1029400074696D6572732E63000000004572726FCA
:10295000723A25732C25640D0A000000CC0000207B
:102960000C480068401C08B9012000E0002028B98C
:1029700040F20F1208A113A0FEF7DCFD00BF5020AB
:1029800080F31188BFF34F8FBFF36F8F00BF00BF7D
:10299000FEE70000F40000202E2E5C4672656552B2
:1029A000544F535C706F727461626C655C52564434
:1029B000535C41524D5F434D34465C706F72742ED0
:1029C000630000004572726F723A25732C25640D06
:1029D0000A00000008B500BF6846FFF723FC044664
:1029E00020460099FFF7F4FEFFF75CFEF4E770B5B0
:1029F000044600F0EBF994F945501AE0A06C38B1A8
:102A000000212046FFF7BEFD88B100F0D9FB0EE0A3
:102A1000606A08B9012000E0002038B904F1240000
:102A200001F034FB18B100F0CBFB00E003E0681EBE
:102A300045B2002DE2DC00BFFF2084F8450000F025
:102A400009FA00F0C3F994F9445010E0206908B97C
:102A5000012000E0002048B904F1100001F016FB4D
:102A600008B100F0ADFB681E45B200E001E0002DAA
:102A7000ECDC00BFFF2084F8440000F0EBF970BDEF
:102A80002DE9F04104464FF0000800F0CBFC3E4831
:102A9000006808B9FFF7F4FB3C48006820400028B4
:102AA0005FD1A4B1083404F0070080B104F007003E
:102AB000C0F10800044404F0070008B9012000E058
:102AC000002020B9BF2232A13BA0FEF733FD002C2D
:102AD00047D03D480068844243D83C4E30460568A4
:102AE00001E02E462D686868A04202D228680028BE
:102AF000F7D125480068854233D0306800F10808D6
:102B0000286830606868001B102813D92F1907F057
:102B1000070008B9012000E0002020B9EC221CA128
:102B200025A0FEF707FD6868001B78606C603846DA
:102B3000FFF7ACFC244968680968081A2249086054
:102B40000846006822490968884203D21E48006886
:102B50001F4908600D4968680968084368600020DB
:102B6000286001F0EDFA08F0070008B9012000E044
:102B7000002028B94FF4967205A10FA0FEF7DAFCE9
:102B80004046BDE8F0810000E4000020F000002095
:102B90002E2E5C4672656552544F535C706F727492
:102BA00061626C655C4D656D4D616E675C68656109
:102BB000705F342E630000004572726F723A2573A5
:102BC0002C25640D0A000000E8000020DC00002035
:102BD000EC0000200648006830B10549096801F1A1
:102BE0005000096D491C01600148006870470000F1
:102BF0008C000020001F4FF080730360001F21F045
:102C000001030360001F054B036014380260001FBE
:102C10006FF002030360203870470000612900084C
:102C20001CB5044600F0D2F80D48012100238A02A9
:102C3000CDE900100BA10F4801F0C6F80E480121A4
:102C400000238A02CDE900100CA10E4801F0BCF867
:102C50000D48006800F02EFA00F0FCF81CBD0000E2
:102C600034000020455350383236365F50616C7363
:102C700065000000C50800083C00002041545F5476
:102C800065737400850800082400002010B588B022
:102C9000044601210846FEF737F801211020FEF70F
:102CA00053F8072209212248FDF7ACFE07220A212A
:102CB0001F48FDF7A7FE4FF4C060069002208DF874
:102CC0001C008DF81D0000208DF81E0001208DF8DD
:102CD0001F0006A91648FDF74DFE02940020ADF82E
:102CE0000C00ADF80E00ADF81000ADF814000C208B
:102CF000ADF8120002A90F48FEF784FB01210D4830
:102D0000FEF718FB012240F225510A48FEF755FB59
:102D100025208DF8040003208DF805008DF80600AD
:102D200001208DF8070001A8FDF7A8FF08B010BD2D
:102D3000000002400010014001460A69D1E901305B
:102D40009860D1E9010358605068884201D18868D1
:102D50005060002008611068401E106010687047C5
:102D600000F1080141604FF0FF31816000F108017E
:102D7000C16001610021016070470021016170475D
:102D800010B502460B685C1C0CB9106907E002F133
:102D9000080000E04068446824689C42FAD944680E
:102DA0004C604C68A160886041600A611468641CD2
:102DB000146010BD42684A6093688B6093685960E4
:102DC0009160086103685B1C0360704710B500BF29
:102DD000502080F31188BFF34F8FBFF36F8F00BF78
:102DE0000B480068401C0A49086008460068012832
:102DF0000DD108480068C0B208B9012000E00020E9
:102E000028B940F2B91204A10EA0FEF793FB10BD41
:102E1000F400002004ED00E02E2E5C467265655241
:102E2000544F535C706F727461626C655C525644AF
:102E3000535C41524D5F434D34465C706F72742E4B
:102E4000630000004572726F723A25732C25640D81
:102E50000A00000010B50B48006828B94FF4E07272
:102E600009A114A0FEF766FB06480068401E05494C
:102E700008600846006820B9002080F3118800BF70
:102E800000BF10BDF40000202E2E5C467265655216
:102E9000544F535C706F727461626C655C5256443F
:102EA000535C41524D5F434D34465C706F72742EDB
:102EB000630000004572726F723A25732C25640D11
:102EC0000A00000070B506463546002E35D0083D94
:102ED0002C461A4960680968084008B1012000E0E2
:102EE000002028B94FF4A07215A11FA0FEF722FB05
:102EF000206808B9012000E0002028B940F2411202
:102F00000FA119A0FEF716FB0C496068096808407C
:102F100098B1206888B90949606809688843606089
:102F200000F080FA14496068096808441249086092
:102F30002046FFF7ABFA01F003F970BDF000002066
:102F40002E2E5C4672656552544F535C706F7274DE
:102F500061626C655C4D656D4D616E675C68656155
:102F6000705F342E630000004572726F723A2573F1
:102F70002C25640D0A000000E800002006480068C7
:102F80004FF47A71B0FBF1F0401E4FF0E021486140
:102F900007200861704700000000002070B5FDF7B1
:102FA00055F90546102D11D305F1E02090F8F043B6
:102FB00010480078844201DB012000E0002028B99D
:102FC0004FF440720CA117A0FEF7B4FA194800683C
:102FD00000F4E06018490968884201D8012000E047
:102FE000002028B94FF4447203A10EA0FEF7A2FA04
:102FF00070BD0000F80000202E2E5C467265655200
:10300000544F535C706F727461626C655C525644CD
:10301000535C41524D5F434D34465C706F72742E69
:10302000630000004572726F723A25732C25640D9F
:103030000A0000000CED00E0FC0000200246002029
:103040000BE0084B53F8303033B9064B43F83010DF
:1030500003EBC0035A6002E0401C0828F1D300BF14
:10306000704700008C0E00202DE9F04105460E4609
:1030700017462C46FFF7AAFE94F94400401C10B9ED
:10308000002084F8440094F94500401C10B9002049
:1030900084F84500FFF7DEFEA06B28B93A463146BA
:1030A00004F1240000F0BCF82046FFF7A0FCBDE8C6
:1030B000F081000070B50546FFF788FE15B92D4870
:1030C000006800E028460446201DFFF735FE78B969
:1030D000E06A00EB8000284951F8200040B994F8DC
:1030E0002C1001208840254909688143234801604C
:1030F000A06A18B104F11800FFF71EFE204800680E
:10310000401C1F4908601B480068844209D1211DEA
:103110001C48FFF74FFE1C480068401C1A49086015
:1031200009E01A480068401E184908602046FFF769
:1031300070F8FFF787FBFFF78DFE15480068C0B1F8
:103140000C480068844214D11248006808B9012074
:1031500000E0002028B940F265420FA113A0FEF75D
:10316000E9F94FF0805015490860BFF34F8FBFF366
:103170006F8F70BD8C000020CC0E0020A4000020BA
:10318000B800002088110020980000209C0000203A
:10319000A8000020C40000202E2E5C4672656552F7
:1031A000544F535C7461736B732E63004572726F7E
:1031B000723A25732C25640D0A00000004ED00E02E
:1031C0000120014908607047B000002070B5044636
:1031D0000D462CB940F6063207A10CA0FEF7AAF95D
:1031E0000E48016818312046FFF7CAFD0121284624
:1031F000FEF7B0FE70BD00002E2E5C467265655273
:10320000544F535C7461736B732E63004572726F1D
:10321000723A25732C25640D0A0000008C000020F2
:1032200070B505460E4614462DB940F6313209A157
:103230000DA0FEF77FF91048016818312846FFF706
:10324000B9FD0CB14FF0FF3621463046FEF782FE45
:1032500070BD00002E2E5C4672656552544F535C63
:103260007461736B732E63004572726F723A2573CB
:103270002C25640D0A0000008C00002070B5054666
:103280002C46002D4BD02649E06A0968C96A88425D
:1032900045D2A06900F0004028B921480068C06A02
:1032A000C0F12000A061E16A01EB81011D4A02EB3F
:1032B00081016069884201D1012000E0002050B303
:1032C000201DFFF739FD78B9E06A00EB8000154951
:1032D00051F8200040B994F82C1001208840124980
:1032E00009688143104801600D480068C06AE062C7
:1032F00094F82C10012088400B49096808430A49BA
:103300000860E16A01EB8101064A02EB8100211DA0
:10331000FFF750FD03E002480068C06AE06270BD3C
:103320008C000020CC0E0020A400002010B5044624
:103330002CB940F6C13205A109A0FEF7FBF80C48F4
:10334000006820600B480068606010BD2E2E5C464F
:1033500072656552544F535C7461736B732E6300D6
:103360004572726F723A25732C25640D0A000000B5
:10337000B4000020A00000201CB51A4800210B4614
:103380008222CDE9001018A1194800F01DFD044665
:10339000012C02D100F064FF0446012C15D100BFBE
:1033A000502080F31188BFF34F8FBFF36F8F00BFA2
:1033B0004FF0FF300F49086001200F4908600020DE
:1033C0000E49086000F08AF80BE0601C08B101208B
:1033D00000E0002028B940F2847209A10DA0FEF798
:1033E000A9F81CBDC000002049444C450000000065
:1033F000FD220008BC000020A8000020A000002042
:103400002E2E5C4672656552544F535C7461736B2B
:10341000732E63004572726F723A25732C25640D0A
:103420000A00000002480068401C0149086070471B
:10343000C400002010B51B48006818B101201A49CB
:1034400008602DE000201849086018480068B0FAAC
:1034500080F0C0F11F0404EB8400154951F82000EE
:1034600008B1012000E0002028B940F6F62211A1A1
:1034700015A0FEF75FF804EB84010D4A02EB810012
:1034800041684968416000F1080142688A4202D1FE
:103490004168496841604168C9680F4A116000BFCE
:1034A00010BD0000C4000020B0000020A4000020D7
:1034B000CC0E00202E2E5C4672656552544F535C34
:1034C0007461736B732E63004572726F723A257369
:1034D0002C25640D0A0000008C0000201CB540481B
:1034E00000684049884201D0012000E0002028B94E
:1034F00040F259123CA147A0FEF71CF8384800687A
:103500003849491E884201D0012000E0002028B936
:103510004FF4AD7234A13FA0FEF70CF8414C2046A9
:1035200000780190FF20214608700846007800903E
:103530009DF8000000F0F0009DF80010884201D1D5
:10354000012000E0002028B940F2731226A131A02A
:10355000FDF7F0FF9DF8000000F0500032490870C0
:1035600007203249086009E030480068401E2F49B2
:1035700008609DF800004006000E00909DF80000D5
:1035800000F080008028EFD028480068000227491A
:1035900008600846008800F4E0600860214901984E
:1035A00008700F482030006840F470000C4920314A
:1035B00008600846006840F070400860FFF7DEFCD5
:1035C00000201B490860FCF709FE1A48006840F01B
:1035D000404018490860FCF7F1FD00201CBD0000C8
:1035E00000ED00E071C20F412E2E5C4672656552FF
:1035F000544F535C706F727461626C655C525644D8
:10360000535C41524D5F434D34465C706F72742E73
:10361000630000004572726F723A25732C25640DA9
:103620000A00000000E400E0F8000020FC00002098
:10363000F400002034EF00E010B500BF502080F30C
:103640001188BFF34F8FBFF36F8F00BF00F002FCF4
:1036500018B14FF080500449086000BF002080F38B
:10366000118800BF10BD000004ED00E02DE9F84313
:1036700005460E4690460DB1012000E0002028B915
:103680004FF4C4720DA112A0FDF754FF0EB900272C
:1036900001E005FB06F707F15400FFF7F1F90446D6
:1036A00044B104F1540943464A4631462846009441
:1036B000FEF738FE2046BDE8F88300002E2E5C465B
:1036C00072656552544F535C71756575652E630064
:1036D0004572726F723A25732C25640D0A00000042
:1036E0002DE9FF4782B005460E461F464FF0000AFF
:1036F0002C462CB940F2DC4261A166A0FDF71AFF0E
:103700000EB9206C08B9012000E0002028B940F271
:10371000DD425BA15FA0FDF70DFF00F085FB08B95E
:10372000049808B9012000E0002028B94FF49C62F9
:1037300053A158A0FDF7FEFE00BFFFF747FBD4F8EA
:103740003890B9F1000F3DD0D4F80C8031462046B6
:10375000FEF70CFDDFB9A9F10100A063206810B9E4
:10376000FFF738FA6060206908B9012000E0002006
:1037700010BB04F1100000F089FCE8B14FF080505C
:1037800048490860BFF34F8FBFF36F8F14E0C4F850
:103790000C80606A08B9012000E0002060B904F1E3
:1037A000240000F073FC38B14FF080503D490860B0
:1037B000BFF34F8FBFF36F8FFFF74CFB012006B0B5
:1037C000BDE8F087049818B9FFF744FB0020F6E73E
:1037D000BAF1000F04D16846FFF7A8FD4FF0010AC7
:1037E000FFF738FBFFF71EFEFFF7F0FA94F94400ED
:1037F000401C10B9002084F8440094F94500401C96
:1038000010B9002084F84500FFF724FB04A968469E
:1038100000F08AFA40BB2046FEF798FEF0B120681F
:1038200030B9FFF7D3FA6068FFF728FDFFF712FB06
:1038300004F124000499FFF7C9FC2046FFF7D7F8EC
:1038400000F07EFC00287FF478AF4FF080501549DF
:103850000860BFF34F8FBFF36F8F6EE72046FFF70F
:10386000C6F800F06DFC68E72046FFF7C0F800F0EE
:1038700067FC2046FEF76AFE0028EED000209EE797
:103880002E2E5C4672656552544F535C717565759A
:10389000652E63004572726F723A25732C25640D94
:1038A0000A00000004ED00E070B505460E462C4607
:1038B0002CB940F21B121EA122A0FDF73BFEFFF720
:1038C00085FAD4E90F12206801FB02006060002035
:1038D000A0632068A060E06B401E226C216800FBA2
:1038E0000210E060FF2084F8440084F845009EB98F
:1038F000206908B9012000E00020A8B904F11000F7
:1039000000F0C4FB80B14FF0805012490860BFF353
:103910004F8FBFF36F8F07E004F11000FFF720FA1D
:1039200004F12400FFF71CFAFFF794FA012070BDA0
:103930002E2E5C4672656552544F535C71756575E9
:10394000652E63004572726F723A25732C25640DE3
:103950000A00000004ED00E02DE9FF4383B00646B5
:1039600088461D464FF0000934462CB940F2D92252
:1039700060A165A0FDF7DEFDB8F1000F01D1206C5C
:1039800008B9012000E0002028B940F2DA2259A14C
:103990005DA0FDF7CFFD022D02D1E06B012801D122
:1039A000012000E0002028B940F2DB2251A156A0FE
:1039B000FDF7C0FD00F038FA08B9059808B90120F4
:1039C00000E0002028B940F2DE224AA14EA0FDF717
:1039D000B1FD00BFFFF7FAF9A06BE16B884201D39C
:1039E000022D38D12A4641462046FEF7D4FB074631
:1039F000A06C68B129462046FEF7C4FD28B34FF0FD
:103A0000805045490860BFF34F8FBFF36F8F1CE0B4
:103A1000606A08B9012000E0002068B904F12400C0
:103A200000F034FB88B14FF080503B490860BFF391
:103A30004F8FBFF36F8F08E03FB14FF08050364992
:103A40000860BFF34F8FBFF36F8FFFF703FA0120BA
:103A500007B0BDE8F083059818B9FFF7FBF900201F
:103A6000F6E7B9F1000F04D101A8FFF75FFC4FF0B2
:103A70000109FFF7EFF9FFF7D5FCFFF7A7F994F974
:103A80004400401C10B9002084F8440094F945001B
:103A9000401C10B9002084F84500FFF7DBF905A9A8
:103AA00001A800F041F9F0B92046FEF75CFDA0B195
:103AB00004F110000599FFF789FB2046FEF797FFF8
:103AC00000F03EFB002885D14FF08050124908607D
:103AD000BFF34F8FBFF36F8F7CE72046FEF787FF62
:103AE00000F02EFB76E72046FEF781FF00F028FB72
:103AF0000020ADE72E2E5C4672656552544F535C34
:103B000071756575652E63004572726F723A257323
:103B10002C25640D0A00000004ED00E02DE9F05FA3
:103B200080468A4615461E4644462CB940F29F32CE
:103B300035A13AA0FDF7FEFCBAF1000F01D1206CCF
:103B400008B9012000E0002028B94FF468722EA1C6
:103B500032A0FDF7EFFC022E02D1E06B012801D16B
:103B6000012000E0002028B940F2A13226A12BA0BC
:103B7000FDF7E0FCFFF712FA00BF5021EFF31180D0
:103B800081F31188BFF34F8FBFF36F8F00BF0746DC
:103B9000A06BE16B884201D3022E2BD194F945B082
:103BA000324651462046FEF7F6FA0BF10100C8B93D
:103BB000A06C40B131462046FEF7E4FCB8B1B5B187
:103BC0000120286013E0606A08B9012000E00020AD
:103BD00068B904F1240000F059FA40B13DB1012068
:103BE000286004E00BF1010040B284F845004FF07A
:103BF000010901E04FF0000900BF87F3118800BF01
:103C00004846BDE8F09F00002E2E5C467265655266
:103C1000544F535C71756575652E63004572726F04
:103C2000723A25732C25640D0A0000002DE9F04737
:103C300007460D463C462CB940F23C4231A136A025
:103C4000FDF778FC206C08B9012000E0002028B9BD
:103C50004FF488622BA130A0FDF76CFC206808B9F6
:103C6000606808B9012000E0002028B940F2454210
:103C700024A129A0FDF75EFCFFF790F900BF5021B9
:103C8000EFF3118081F31188BFF34F8FBFF36F8F74
:103C900000BF0646D4F83890E06B484529D994F91E
:103CA00045A009F10100A0630AF10100C8B9A06CA8
:103CB00040B100212046FEF765FCB8B1B5B1012046
:103CC000286013E0606A08B9012000E0002068B9AC
:103CD00004F1240000F0DAF940B13DB10120286080
:103CE00004E00AF1010040B284F845004FF00108F9
:103CF00001E04FF0000800BF86F3118800BF404686
:103D0000BDE8F0872E2E5C4672656552544F535CB9
:103D100071756575652E63004572726F723A257311
:103D20002C25640D0A0000002DE9F04104460D46E3
:103D30002CB940F6CB3219A11DA0FDF7FBFB2DB924
:103D400040F6CC3215A11AA0FDF7F4FBFFF73EF8C0
:103D50001B4807682868401C08B9002619E0194963
:103D600020680968884204D06068B84201D80126FA
:103D70000FE06068381A2968884209D228686168AB
:103D8000791A401A28602046FFF7D0FA002600E092
:103D90000126FFF75FF83046BDE8F0812E2E5C4625
:103DA00072656552544F535C7461736B732E63007C
:103DB0004572726F723A25732C25640D0A0000005B
:103DC000A0000020B40000202DE9FF4F85B0804600
:103DD00089461746DDE912ABB800FEF751FE0646EC
:103DE00056B15C20FEF74CFE04460CB1266304E09D
:103DF0003046FFF767F800E000247CB10020CDE9F1
:103E000000ABCDE902403A4649464046089BFEF7E2
:103E1000A1FA2046FEF7EAF8012501E04FF0FF3550
:103E2000284609B0BDE8F08F0549096809B90120A5
:103E300005E00449096809B9022000E00020704744
:103E4000A8000020C4000020014908687047000055
:103E5000A00000202DE9F0414FF000084148006823
:103E6000002872D140480068451C3F480560EDB904
:103E70003E480068006808B9012000E0002028B929
:103E800040F6D9123AA13FA0FDF754FB3748076826
:103E900040480068354908603E4807603E48006871
:103EA000401C3D490860FEF7CDFC00BF3B48006860
:103EB00085423CD300BF2D480068006808B9012046
:103EC00000E0002020B14FF0FF30344908602DE0C1
:103ED00026480068C068C4686668B54202D22F48A8
:103EE000066023E0201DFEF727FFA06A18B104F149
:103EF0001800FEF721FF94F82C1001208840284973
:103F00000968084326490860E16A01EB8101254AF6
:103F100002EB8100211DFEF74DFF2349E06A09688D
:103F2000C96A8842C7D34FF00108C4E700BF1E48E2
:103F30000068C06A00EB80001A4951F8200001288F
:103F400001D94FF0010805E0FFE718480068401C60
:103F5000164908601648006808B14FF0010840464D
:103F6000BDE8F081C4000020A000002090000020E7
:103F70002E2E5C4672656552544F535C7461736BB0
:103F8000732E63004572726F723A25732C25640D8F
:103F90000A00000094000020B4000020BC000020B3
:103FA000A4000020CC0E00208C000020AC000020DB
:103FB000B000002070B505462C460026002D4BD0E1
:103FC00026480068844201D1012000E0002028B981
:103FD00040F6C76222A127A0FDF7ACFA206D28B9F0
:103FE00040F6C9621EA123A0FDF7A4FA206D401E71
:103FF0002065E16CE06A88422ED0206D60BB201DF8
:10400000FEF79AFE78B9E06A00EB80001D4951F88E
:10401000200040B994F82C10012088401A49096802
:10402000814319480160E06CE062E06AC0F1200061
:10403000A06194F82C1001208840134909680843B6
:1040400011490860E16A01EB81010E4A02EB81002F
:10405000211DFEF7AFFE0126304670BD8C0000200A
:104060002E2E5C4672656552544F535C7461736BBF
:10407000732E63004572726F723A25732C25640D9E
:104080000A000000CC0E0020A400002070B50646F7
:10409000F068C4682CB940F661321AA11EA0FDF781
:1040A00049FA04F11800FEF747FE1F480068A8B956
:1040B000201DFEF741FE94F82C10012088401B497A
:1040C0000968084319490860E16A01EB8101184A4F
:1040D00002EB8100211DFEF76DFE04E004F11801E2
:1040E0001448FEF767FE1449E06A0968C96A884205
:1040F00004D9012501201149086000E00025284667
:1041000070BD00002E2E5C4672656552544F535CA4
:104110007461736B732E63004572726F723A25730C
:104120002C25640D0A000000C4000020A40000201B
:10413000CC0E0020741100208C000020B000002064
:1041400070B5002400263448006828B94FF4FD6299
:1041500032A137A0FDF7EEF9FEF738FE2E480068D1
:10416000401E2D4908600846006800284FD1344899
:10417000006800284BD024E03248C068C46804F1CD
:104180001800FEF7D9FD201DFEF7D6FD94F82C107F
:10419000012088402C49096808432B490860E16ADE
:1041A00001EB8101294A02EB8100211DFEF702FE8D
:1041B0002749E06A0968C96A884202D30120254973
:1041C00008602048006808B9012000E000200028AD
:1041D000D2D00CB1FEF736FB1F48056865B100BFB1
:1041E000FFF738FE10B101201A4908606D1E002D3E
:1041F000F6D10020184908601648006838B1012639
:10420000300716490860BFF34F8FBFF36F8FFEF77B
:1042100021FE304670BD0000C40000202E2E5C46FA
:1042200072656552544F535C7461736B732E6300F7
:104230004572726F723A25732C25640D0A000000D6
:104240009C00002074110020A4000020CC0E00204F
:104250008C000020B0000020AC00002004ED00E045
:104260001CB50024FDF71EFF0B48006858B10B4831
:104270001F2100234FF48272CDE9001008A10A48E3
:10428000FFF7A2FD04462CB940F2331207A10DA09E
:10429000FDF750F920461CBDD0000020D4000020BE
:1042A000546D722053766300D52900082E2E5C468B
:1042B00072656552544F535C74696D6572732E63F9
:1042C000000000004572726F723A25732C25640D50
:1042D0000A0000002DE9FF4704460D4616461F461A
:1042E000DDF830804FF000092CB94FF4D37217A1DC
:1042F0001CA0FDF71FF91F48006810B30095019638
:104300000294062D15DAFFF78FFD022808D100234D
:104310004246694617480068FFF71EFB814610E0D9
:1043200000231A46694613480068FFF715FB8146CB
:1043300007E000233A4669460E480068FFF7EEFBA7
:104340008146484604B0BDE8F08700002E2E5C464A
:1043500072656552544F535C74696D6572732E6358
:10436000000000004572726F723A25732C25640DAF
:104370000A000000D00000204154000040404040AE
:104380004040404040414141414140404040404028
:104390004040404040404040404040400502020212
:1043A0000202020202020202020202022020202075
:1043B000202020202020020202020202029090907F
:1043C000909090101010101010101010101010106D
:1043D00010101010101010020202020202888888C9
:1043E00088888808080808080808080808080808CD
:1043F0000808080808080802020202407C43000876
:1044000020440008000000200001000054150008AE
:104410002045000800010020F86400006415000831
:10442000007A030A000000000000000001020304FB
:10443000060708090000000000000000000000005E
:10444000000000000000000000000000000000006C
:10445000000000000000000000000000000000005C
:10446000000000000000000000000000000000004C
:10447000000000000000000000000000000000003C
:10448000000000000000000000000000000000002C
:104490000000000000000000000000000000010219
:1044A00003040102030406070809000000000000DD
:1044B00000000000000000000000000000000000FC
:1044C00000000000000000000000000000000000EC
:1044D00000000000000000000000000000000000DC
:1044E00000000000000000000000000000000000CC
:1044F00000000000000000000000000000000000BC
:1045000000000000000000000000000000000000AB
:1045100000000000AAAAAAAA0000000000000000F3
:040000050800018965
:00000001FF
