:020000040800F2
:10000000205A002055020008590D0008710B000805
:10001000550D0008D90800086B1600080000000004
:100020000000000000000000000000009D0100082A
:10003000DD08000800000000F1010008611100085F
:100040006F0200086F0200086F0200086F020008CC
:100050006F0200086F0200086F0200086F020008BC
:100060006F0200086F0200086F0200086F020008AC
:100070006F0200086F0200086F0200086F0200089C
:100080006F0200086F0200086F0200086F0200088C
:100090006F0200086F0200086F0200086F0200087C
:1000A0006F0200086F0200086F0200086F0200086C
:1000B0006F0200086F0200086F0200086F0200085C
:1000C0006F0200086F0200086F0200086F0200084C
:1000D0006F02000851130008D91300086F020008CE
:1000E0006F0200086F0200086F0200086F0200082C
:1000F0006F0200086F0200086F0200086F0200081C
:100100006F0200086F0200086F0200086F0200080B
:10011000D91100086F0200086F0200086F02000882
:100120006F0200086F0200086F0200086F020008EB
:100130006F0200086F0200086F0200086F020008DB
:100140006F0200086F0200086F0200086F020008CB
:100150006F0200086F0200086F0200086F020008BB
:100160006F0200086F0200086F0200086F020008AB
:100170006F0200086F0200086F0200086F0200089B
:100180006F0200086F020008DFF80CD000F0D4FA0C
:1001900000480047D1200008205A00202A4B196847
:1001A0000868B0E8F04F80F30988BFF36F8F4FF015
:1001B000000080F3118870470000000006480068C6
:1001C000006880F3088862B661B6BFF34F8FBFF353
:1001D0006F8F00DF00BF00BF08ED00E0DFF80C000C
:1001E000016841F470010160704700BF88ED00E0D4
:1001F000EFF30980BFF36F8F134B1A681EF0100FD7
:1002000008BF20ED108A20E9F04F106008B44FF0CD
:10021000500080F31188BFF34F8FBFF36F8F03F04F
:10022000BFFA4FF0000080F3118808BC1968086815
:10023000B0E8F04F1EF0100F08BFB0EC108A80F34A
:100240000988BFF36F8F704788000020EFF30580A7
:10025000704700000648804706480047FEE7FEE773
:10026000FEE7FEE7FEE7FEE7FEE7FEE7FEE7FEE766
:10027000711100088901000800487047D84700083C
:1002800040EA01039B0703D009E008C9121F08C018
:10029000042AFAD203E011F8013B00F8013B521E98
:1002A000F9D27047D2B201E000F8012B491EFBD20F
:1002B00070470022F6E710B513460A460446194671
:1002C000FFF7F0FF204610BD30B505462A460B4625
:1002D00012F8010B13F8014B08B1A042F8D01CB181
:1002E000002802D06D1CF1E7284630BD421C10F8F2
:1002F000011B0029FBD1801A704730B5044600204D
:10030000034600E05B1C934203D2E05CCD5C401BE3
:10031000F8D030BD00F0004230F000400AD0C10DEE
:1003200001F56071C0F3160042EA0151C2084007AE
:100330001143704700200146704730B50B46014617
:1003400000202022012409E021FA02F59D4205D374
:1003500003FA02F5491B04FA02F52844151EA2F11E
:100360000102F1DC30BD2DE9F05F05460020924628
:100370009B4688460646814640241BE02846414667
:100380004746224600F0F9F953465A46C01A9141B1
:1003900010D311461846224600F0E0F92D1A67EBFB
:1003A00001084F4622460120002100F0D7F917EB43
:1003B00000094E41201EA4F10104DFDC484631460D
:1003C0002A464346BDE8F09F2DE9FE4F804681EA6C
:1003D0000300C00F0C46009021F0004123F00045BF
:1003E000B8EB0200A94105D24046214690461C4682
:1003F0000B46024623F00040104347D0270DC7F3B9
:100400000A00C3F30A510290401A019040286BDAA7
:10041000C3F3130040F4801B0098924620B10023E0
:10042000D2EB030A63EB0B0B01985946C0F1400273
:10043000504600F093F906460D4650465946019A3B
:1004400000F0ABF910EB08006141002487EA11527B
:1004500084EAE7731A4340D0009A62B3019A012AF2
:100460004FEA075215DC001B61EB02014FF000421E
:1004700002EA0752CDE90042001C41F580113246E4
:100480002B4600F0ABF903B0BDE8F08F40462146A3
:10049000F9E7001B61EB0201001C41F58013001815
:1004A0005B412018A2F5001747EB030140EAD57025
:1004B000B6196D4111E06D084FEA360645EAC07580
:1004C0004FEA0752001B61EB0201001C41F580114D
:1004D00049084FEA30000019514132462B4603B01B
:1004E000BDE8F04F00F06BB90098012240000023F6
:1004F000D0EB020263EBE073009821464FEAE07410
:10050000B8EB000061EB0401E9E783F000435BE72F
:1005100081F0004158E72DE9FE4F81EA030404F021
:10052000004421F0004100944FF0000B23F0004301
:1005300050EA01045ED052EA03045BD0C3F30A54CC
:10054000C1F30A552C44A4F2F3340194A0FB0254E5
:10055000C1F3130141F48011C3F3130343F4801377
:1005600001FB024400FB034E840A970A44EA8154CB
:1005700047EA8357A4FB076802958D0A05FB0785A8
:100580004FEA932C04FB0C542705029D4FEA0658B2
:1005900047EA1637B5EB08056EEB070C870E920E8F
:1005A00047EA811742EA8312A7FB0201B6EB0B016F
:1005B00064EB00042B0D43EA0C335E1844EB1C5033
:1005C000DA465146E7FB0201C5F313044FEA0B3349
:1005D00043EA14534FEA0432019C43EA0603A4F1B0
:1005E0000C040294009CCDE900B400F0F7F803B0CD
:1005F000BDE8F08F00200146F9E72DE9F04D81EAD2
:10060000030404F0004B21F0004514464FF0000AAB
:1006100023F0004150EA050220D054EA01021DD027
:10062000C5F30A570246C5F31303C1F31300C1F320
:100630000A5640F4801543F48013A7EB0608101BFC
:10064000D64608F2FD3873EB050002D308F1010825
:1006500001E092185B41B8F1000F03DA0020014677
:10066000BDE8F08D00204FF48011064684460EE070
:10067000171B73EB050705D3121B63EB050306433A
:100680004CEA010C49084FEA300092185B4150EAED
:100690000107EDD152EA030012D082EA040083EA96
:1006A0000501084305D0101BAB4106D201220023EF
:1006B00006E000224FF0004302E06FF00102531009
:1006C0001AEB06004CEB085110EB0A0041EB0B0152
:1006D000BDE8F04D00F073B8C1F30A52C1F3130145
:1006E00040F2FF3341F480119A4202DA00200146C1
:1006F000704740F233439A42A2F2334202DC524244
:1007000000F03BB800F02AB830B5041E71F10004C7
:1007100004DB4FF00044404264EB0101141E73F10E
:10072000000405DB1C464FF00043524263EB040318
:10073000994208BF904230BD064C074D06E0E06884
:1007400040F0010394E8070098471034AC42F6D318
:10075000FFF71EFDDC470008FC470008202A04DBE9
:10076000203A00FA02F1002070479140C2F12003C4
:1007700020FA03F3194390407047202A04DB203A03
:1007800021FA02F00021704721FA02F3D040C2F1B1
:1007900020029140084319467047202A06DBCB17F8
:1007A000203A41FA02F043EAE07306E041FA02F32C
:1007B000D040C2F12002914008431946704710B55D
:1007C000141E73F1000408DA401C41F10001921874
:1007D0005B411A4301D120F0010010BD2DE9F04D1D
:1007E00092469B4611B1B1FA81F202E0B0FA80F272
:1007F00020329046FFF7B2FF04460F4640EA0A0057
:1008000041EA0B0153465A46084313D0114653EAB6
:10081000010019D0C8F140025046FFF7AEFF05466F
:100820000E46504659464246FFF798FF084305D00A
:10083000012004E020463946BDE8F08D0020054344
:1008400046EAE0762C4337430A986305E40AA0EBB6
:1008500008000022FD0A44EA47540A3002D500206D
:100860000146E9E7010510196941DDE9084500196C
:100870006941BDE8F04DA2E770B504460D4600237E
:100880002A4619460448006803F0F2F82146034856
:1008900000F09EFB70BD00005000002068010020A9
:1008A00000240DE00748FFF721FD0546C822294630
:1008B00005A000F021FD0446214604A000F0FAFE48
:1008C000F0E70000084700084154000072657420FA
:1008D00069732025640D0A0000BFFEE77047000021
:1008E000002434E00DB900240125194908194FF0FE
:1008F000FF31FFF7C1FF601E1549085C0D2825D1A7
:100900000846005D0A2821D112A11148FFF7DCFC3E
:1009100028B1C8210E4800F09DF8002516E00C48CB
:1009200000F0A8F9012806D100F08AFB00250B4849
:1009300001F034FC0AE0064800F09CF930B90020D0
:1009400000F07EFB0025054801F028FC641CC9E787
:10095000FC5500202B4950442C0000004C00002086
:10096000F0B50A4600210023002400BF3DE0012528
:1009700005FA01F3156805EA03049C4234D10568C1
:100980004F000326BE40B543056015794E00B540C3
:100990000668354305601579012D02D01579022DC1
:1009A00016D185684F000326BE40B5438560557952
:1009B0004E00B540866835438560456801268E4007
:1009C000B5434560456896798E40B6B2354345607B
:1009D000C5684F000326BE40B543C560D5794E00BB
:1009E000B540C6683543C560491C1029BFD3F0BD6A
:1009F000F0B5002300244D07ED0E02FA05F3CE10EA
:100A000000F1200555F826504E07F70E0F26BE4080
:100A1000B543CF1000F1200646F82750CE1000F164
:100A2000200555F8265045EA0304CE1000F12005B4
:100A300045F82640F0BD4183704701837047426905
:100A40004A4042617047000001480068704700005A
:100A5000680000202DE9F84F06468A46002700244A
:100A60003046FFF743FC00900098002802DC00208D
:100A7000BDE8F88F03F0B0FB804658E027B1012FA6
:100A800018D0022F4ED13AE0402C11DA305D3449B3
:100A900008550021324A601C115432A11046FFF75C
:100AA00013FC18B1012704F1010B02E0641C00E003
:100AB000032738E0402C20DA305D3A281BD15D4610
:100AC0000CE0705D303829490968496901EB810102
:100AD00000EB41002549096848616D1CA542F0DB27
:100AE00000252248006840692044401C1F490968CD
:100AF0008861022702E0641C00E0032713E01B4822
:100B000000688069A0420BDD184800688069A8422F
:100B100006DD305D1549096848556D1C641C00E010
:100B2000032700E000BF00BF032F00D101E0042F26
:100B3000A4D100BF03F050FB8146A9EB08004FF49D
:100B40007A714843B0FBF1F0504502D34FF0FF30CB
:100B50008EE7032F01D101208AE7002088E70000FB
:100B6000A80100202B4950442C0000006400002004
:100B700000BFFEE721B1028842F00102028004E0DA
:100B800002884FF6FE731A40028070472DE9FF4736
:100B900004460D460026B1460427DFF8CC80A6881F
:100BA0004FF6C0700640684600F098F9DDF80880FE
:100BB0002E48B8FBF0F01FFA80F946EA0906A68035
:100BC00020884FF6FE7108402080002628492868BA
:100BD00088420CD828684000B8FBF0F087B2042F98
:100BE00000DA04273E4309F10100208427E0E88869
:100BF0004BF6FF71884206D1286800EB4000B8FB35
:100C0000F0F087B209E0286800EBC00101EB0010AA
:100C1000B8FBF0F087B247F48047C7F30B0008B980
:100C200047F0010747F4004006434FF4967009FB74
:100C300000F04FF47A7190FBF1F0401C2084A68301
:100C4000208840F00100208026884FF6F5300640CD
:100C5000A8886989084306432680A889298908430A
:100C60002081BDE8FF87000000127A0040420F009B
:100C7000A086010030B5A1B0054600241DB128466C
:100C8000FFF734FB10B9002021B030BD03E0285D30
:100C900001A90855641CFFF7EFFA0068295D405C64
:100CA00000F001000028F2D0002001A9085502221E
:100CB00008A101A8FFF721FB08B90120E4E70522FC
:100CC00005A101A8FFF719FB08B90020DCE7012006
:100CD000DAE700004F4B00004552524F520000002F
:100CE0001CB50121102000F0C9F800208DF8040087
:100CF0008DF8060048F28010009001208DF8070062
:100D000000208DF8050069460148FFF729FE1CBD4B
:100D1000001002401CB50121202000F0AFF84FF474
:100D20004060009001208DF8040000208DF806003E
:100D300003208DF8050001208DF80700694604485E
:100D4000FFF70EFE4FF440610148FFF776FE1CBD31
:100D50000014024000BFFEE77047000070B500219C
:100D600000230F22C4781CB3174C246804F4E064F9
:100D7000C4F5E064C4F30721C1F10404E3B20A41FD
:100D800044789C40E1B28478144021430C07210E42
:100D90000E4C05786155047804F01F050124AC4021
:100DA00005786D11AD0005F1E025C5F8004109E0B9
:100DB000047804F01F050124AC40054D0678761137
:100DC00045F8264070BD00000CED00E000E400E0B6
:100DD00080E100E002490143024A116070470000CF
:100DE0000000FA050CED00E000B587B001210220FB
:100DF00000F044F80121880500F050F804220A218F
:100E00001B48FFF7F5FD04220B211948FFF7F0FD01
:100E100002208DF8180001208DF81A004FF4406070
:100E2000059000208DF81B008DF8190005A91048C9
:100E3000FFF796FD4FF48060ADF80E000001ADF8AD
:100E400010000C4801904BF6FF70ADF80A0000202E
:100E5000ADF808000A20ADF80C0001A90648FFF71C
:100E600095FE01210448FFF785FE07B000BD000094
:100E700000040240A08601000058004029B1064A43
:100E800012680243044B1A6004E0034A126882436A
:100E9000014B1A60704700003038024029B1064A01
:100EA00012680243044B1A6004E0034A126882434A
:100EB000014B1A60704700004038024029B1064AD1
:100EC00012680243044B1A6004E0034A126882432A
:100ED000014B1A607047000044380240F0B5002111
:100EE00000220024022500260223324F3F6807F02B
:100EF0000C0121B1042905D0082937D105E02E4F76
:100F0000076036E02D4F076033E02A4F3F1F3F68F0
:100F1000C7F38056274F3F1F3F6807F03F036EB16E
:100F2000264FB7FBF3F7DFF88CC0ACF1040CDCF80C
:100F300000C0CCF3881C07FB0CF40CE01E4FB7FB81
:100F4000F3F7DFF870C0ACF1040CDCF800C0CCF3B0
:100F5000881C07FB0CF4174F3F1F3F68C7F301477E
:100F60007F1C7D00B4FBF5F7076002E0124F0760BD
:100F700000BF00BF0F4F3F6807F0F0010909104F95
:100F80007A5C0768D74047600A4F3F6807F4E05132
:100F9000890A0B4F7A5C4768D7408760054F3F68E6
:100FA00007F46041490B064F7A5C4768D740C76039
:100FB000F0BD0000083802400024F40000127A005E
:100FC00076000020016000238380C3800281704787
:100FD00010B502469088C0F30E00D388C3F30E0309
:100FE000984202D14FF0FF3010BD9388C3F30E0337
:100FF0001068C05C08709088C0F30E00401CB2F905
:10100000083090FBF3F403FB140090800020EBE722
:1010100030B5C388C3F30E035B1CB0F9084093FBE3
:10102000F4F504FB15328388C3F30E03934205D015
:10103000C488C4F30E0403681955C28030BD000093
:101040000149086070470000680000200CB50020CE
:10105000019000903448006840F4803032490860C4
:1010600000BF3148006800F4003000900198401C37
:101070000190009818B90198B0F5A04FF1D12A4815
:10108000006800F4003010B10120009001E0002061
:1010900000900098012846D123484030006840F075
:1010A00080502149403108602048006840F44040A9
:1010B0001E4908601C48083000681B490831086058
:1010C0000846006840F4004008600846006840F4A4
:1010D000A05008601648091F0860081F006840F00B
:1010E0008070091F086000BF0F48006800F00070A2
:1010F0000028F9D040F205700E4908600A4808300F
:10110000006820F0030008490831086008460068BC
:1011100040F00200086000BF03480830006800F09B
:101120000C000828F8D10CBD0038024000700040C7
:1011300008544007003C0240042808D14FF0E02149
:10114000096941F004014FF0E022116107E04FF01E
:10115000E021096921F004014FF0E022116170479C
:1011600010B503F029F8012801D002F01BFC10BDD6
:1011700010B51548006840F4700013490860134822
:10118000006840F001001149086000200F49083153
:1011900008600E4800680E4908400C4908600D4878
:1011A000091D0860081F006820F48020091F0860DE
:1011B000002006490C310860FFF748FF4FF000603F
:1011C00001498039086010BD88ED00E00038024018
:1011D000FFFFF6FE1030002410B500201049086013
:1011E00040F225510F4800F07EF9B8B10D4800F0EB
:1011F00033FAC4B221460C48FFF70AFF08490B48EE
:10120000006802F0DBFE0648006838B14FF08050FD
:1012100007490860BFF34F8FBFF36F8F10BD000009
:101220005C000020004C00406801002050000020BD
:1012300004ED00E000B587B001210420FFF71EFE99
:101240000121C804FFF72AFE08220A212448FFF7DB
:10125000CFFB08220B212248FFF7CAFB02208DF8A2
:10126000180000208DF81A004FF44060059001200E
:101270008DF81B0002208DF819004FF4E130019029
:101280000020ADF810000C20ADF80E000020ADF8E5
:101290000C00ADF80A00ADF8080005A91048FFF7EA
:1012A0005FFB01A90F4800F06DF901210D4800F026
:1012B00001F9012240F225510A4800F03EF934209C
:1012C0008DF800000F208DF8010000208DF802003D
:1012D00001208DF803006846FFF740FD07B000BD10
:1012E00000080240004C004001B5684600F02EFFA7
:1012F000684600F03BFF08BD2DE9F04105460E466B
:101300001746002E02DC0020BDE8F08129460D487A
:1013100000F0BCF930B90CA10A4800F0B7F908B9DF
:101320000020F1E73946094800F029FF0446012C66
:1013300004D1FFF789FB80464046E5E74FF0FF30D8
:10134000E2E70000004C00400D0A00004C000020C5
:1013500010B540F225511D4800F0C5F810B31B48E8
:1013600000F07AF9C4B21A48008800F40040C8B905
:101370001748008800F4804060B10A2C03D0002098
:101380001349088020E01248008840F400401049CA
:10139000088019E00D2C06D10D48008840F48040EB
:1013A0000B49088010E00A480088C0F30D00094985
:1013B0000C5407480088401C0549088008460088EE
:1013C000C72801DD0020088010BD0000001001408A
:1013D00074000020E801002010B540F225510648B5
:1013E00000F081F838B1044800F036F9C4B2214663
:1013F0000248FFF70DFE10BD0044004068010020C8
:1014000000B587B001210846FFF738FD01214804E7
:10141000FFF744FD072202212448FFF7E9FA0722DB
:1014200003212248FFF7E4FA02208DF8180000207B
:101430008DF81A000C20059001208DF81B0000206B
:101440008DF819004FF4E13001900020ADF8100044
:101450000C20ADF80E000020ADF80C00ADF80A002D
:10146000ADF8080005A91148FFF77AFA01A910485C
:1014700000F088F801210E4800F01CF8012240F22B
:1014800025510B4800F059F826208DF800000E2059
:101490008DF8010000208DF8020001208DF8030076
:1014A0006846FFF75BFC07B000BD0000000002408B
:1014B0000044004021B1828942F40052828104E05C
:1014C00082894DF6FF731A408281704702460020E0
:1014D000B1F5007F00D100BF13880B400BB1012094
:1014E00000E00020704770B502460024002300256C
:1014F000002040F66A16B14200D100BFC1F3421588
:1015000001F01F03012606FA03F3012D02D196898B
:10151000334006E0022D02D1168A334001E0968A5C
:1015200033400C12012606FA04F41688344013B135
:101530000CB1012000E0002070BDF0B5034600248E
:1015400000260025002040F66A17B94200D100BFEE
:101550001846C1F3421401F01F06012707FA06F5E9
:10156000012C01D10C3004E0022C01D1103000E03C
:1015700014301AB107682F43076002E00768AF43D1
:101580000760F0BD2DE9FF4705460E460024A14641
:1015900000BFA046B08900B100BF2C8A24F440549B
:1015A000F08804432C82AC8941F20C608443B088FB
:1015B00031890843718908430443AC81AC8A24F41F
:1015C0004074B0890443AC826846FFF787FC20482A
:1015D000854202D01F48854202D1DDF80C9001E01F
:1015E000DDF80890A88900F4004040B109EBC9007B
:1015F00000EB091031684900B0FBF1F707E009EB97
:10160000C90000EB091031688900B0FBF1F76420D4
:10161000B7FBF0F004012009642101FB1078A889D0
:1016200000F4004040B1322000EBC800B0FBF1F004
:1016300000F00700044308E0322000EB08106421AA
:10164000B0FBF1F000F00F0004432C81BDE8FF87F0
:10165000001001400014014001468888C0F30800D2
:101660007047C1F308028280704700BFFEE770B583
:1016700004460D4629462046FFF7F3FF00BF8021B0
:101680002046FFF723FF0128F9D170BD70B506464B
:101690000C4600250CB9002070BD05E028466D1CE5
:1016A000215C3046FFF7E3FF605D0028F6D10120A2
:1016B000F2E700000FB4054B10B503A9044A0298E5
:1016C00000F0DAF810BC5DF814FB000045200008BB
:1016D0007000002002E008C8121F08C1002AFAD1D9
:1016E00070477047002001E001C1121F002AFBD1A2
:1016F000704700002DE9FF5F82B00021DDE9043072
:10170000020DDDF840B0034318D044F61050A2F2A9
:10171000FF3242431514119801281FD0A5EB0B008E
:10172000401C5FEA000A4FF000064E4FDFF8389188
:10173000B046504615D5CAF1000413E011980124B3
:101740004AA3012801D16FEA0B010298119AC0E95E
:101750000031C0E9024206B0BDE8F09FCBF10000C5
:10176000DFE704460021404A491842EB0450CDE926
:10177000001012E0E00707D032463B46404649469B
:10178000FEF7C9FE8046894632463B46104619465A
:10179000FEF7C1FE06460F466410002CEAD1DDE9D3
:1017A0000401DDE90023BAF1000F06DAFEF7B3FE0B
:1017B00042464B46FEF7AFFE05E0FEF71EFF4246EF
:1017C0004B46FEF71AFF04460E460022284BFEF752
:1017D0009BFF03D84FF0FF30014607E00022254B66
:1017E00020463146FEF7F0FDFEF776FF102409E0B3
:1017F000002C0ADB0A220023FEF7B5FD039B3032E2
:101800001A55641E50EA0102F2D1641C039AC4F115
:1018100011031444119A012A03D0012208430DD167
:101820000AE0084304D000204FF0110B119072E73A
:10183000A3EB0B056D1E0DE05B4504DD4FF00002D0
:1018400005F1010504E003DA4FF00002A5F10105FE
:10185000002AECD002981199C0E90231C0E9004594
:1018600079E70000000014400000F03F3000000065
:101870000000F0430000E03F2DE9FF4F95B09B468C
:101880008946064600250FE2252877D10024274601
:10189000F84A0121059400E0044316F8013F203B7B
:1018A00001FA03F01042F7D130782A2811D06FF0F6
:1018B0002F033078A0F13002092A16D8059A44F097
:1018C000020402EB820203EB42021044761C0590F4
:1018D000EFE759F8042B0592002A03DA504244F44A
:1018E0000054059044F00204761C30782E2816D15E
:1018F00016F8010F44F004042A280DD06FF02F02CF
:101900003078A0F13003092B09D807EB870302EBED
:101910004303C718761CF3E759F8047B761C30782C
:101920006C280FD006DC4C2817D068280DD06A2808
:1019300014D104E0742810D07A280FD10DE044F4BB
:1019400000140AE044F4801401E044F44014727876
:10195000824202D104F58014761C761C3078662809
:101960000BD013DC582877D009DC002875D0452827
:10197000F6D04628F4D047281AD19DE118E0632814
:1019800035D0642879D0652812D195E1702873D0BC
:1019900008DC6728F1D069286FD06E280DD06F2839
:1019A00006D1B5E073282CD0752875D0782874D06E
:1019B0005A46179990476D1C75E1C4F302500228EE
:1019C00009D003280DD0D9F8001004280DD00D60DF
:1019D00009F1040967E1D9F80010EA17C1E90052DA
:1019E000F6E7D9F800100D80F2E70D70F0E719F86E
:1019F000041B8DF8001000208DF80100EA4601203C
:101A000003E059F804AB4FF0FF3061074FF00001DD
:101A100002D40DE008F101018846B9420FDA804591
:101A2000F8DB1AF808100029F4D108E008F10101E8
:101A300088468142FADB1AF808100029F6D1059889
:101A40005B46A0EB080721463846179A00F094FA47
:101A5000284400EB080507E04DE029E10DE01AF805
:101A6000010B5A4617999047B8F10108F7D25B4627
:101A700021463846179A13E142E00A220092C4F345
:101A800002524FF0000A022A08D059F804CB032A68
:101A90004FEAEC710AD00DE029E02AE009F10701D4
:101AA00021F00702F2E802C1914609E00FFA8CFC2E
:101AB0004FEAEC71042A03D14FFA8CFC4FEAEC7127
:101AC000002907DA0A460021DCF1000C61EB020173
:101AD0002D2202E0220504D52B228DF804200122BC
:101AE00003E0E20701D02022F7E7904659E00A21FF
:101AF00002E010220DE010214FF0000A00910BE0EF
:101B000010224FF0000A44F004040827009203E07A
:101B100008224FF0000A0092C4F30252022A05D0B4
:101B200059F804CB0021032A08D009E009F1070184
:101B300021F00702F2E802C1914605E01FFA8CFC91
:101B4000042A01D10CF0FF0C4FF00008220728D521
:101B5000702806D0009B83F0100353EA0A0305D0D7
:101B60000EE040228DF80420012208E05CEA010228
:101B700006D030228DF804208DF805000222904610
:101B8000009B83F0080353EA0A030AD15CEA0102CE
:101B900001D1620705D530228DF804204FF00108ED
:101BA0007F1E582804D034A003900EA802900DE0A8
:101BB00036A0F9E753466046009AFEF7D4FB844608
:101BC0000398825C0298401E029002705CEA010059
:101BD000F0D1029806A9081A00F1200A600702D580
:101BE00024F4803400E00127574502DDA7EB0A000A
:101BF00000E0002000EB0A01009005984144401AE3
:101C00000590E00306D45B462146179A059800F03C
:101C1000B3F90544002706E001A85A46C05D1799AC
:101C200090476D1C7F1C4745F6DBE0030CD55B46F7
:101C30002146179A059800F09FF9054404E03020EA
:101C40005A46179990476D1C0099481E009000292C
:101C5000F5DC08E0029802995A460078491C029186
:101C6000179990476D1CBAF10001AAF1010AF1DC45
:101C700065E1000009280100303132333435363750
:101C800038396162636465660000000030313233C8
:101C90003435363738394142434445460000000068
:101CA00000F058F90544761C307800287FF4ECAD3C
:101CB00019B02846BDE8F08F620700D4062709F165
:101CC000070222F0070CFCE80223E14603F000487B
:101CD0005FEA080C02D00FF2702C0DE05FEA045CA2
:101CE00002D50FF2682C07E05FEAC47C02D00FF245
:101CF000602C01E0AFF2700C4FF0FF3823F000438E
:101D0000CDF850C065280CD006DC452809D04628FF
:101D10001DD047283DD13DE0662818D067287ED1E8
:101D200038E00021112F01DB112000E0781CCDE903
:101D3000000106A90EA8FFF7DDFCDDE90F010E9AF0
:101D400003910021009207F1010A04914DE04FF048
:101D500000400097CDE9011006A90EA8FFF7CAFCC4
:101D6000DDE90F0203920E9B11990022DDF80CA011
:101D70000093049211B9791C00EB010AB7EB0A0039
:101D800004D4C0F1FF3007F1010A0490AAEB070068
:101D9000019044E0012F00DA01270021112F01DD1D
:101DA000112000E03846CDE9000106A90EA8FFF792
:101DB000A1FCDDE90F010E9A03910021049100922C
:101DC000BA4621070CD40399514500DA8A46BAF184
:101DD000010F05DD009AAAF10101515C302908D0FC
:101DE000B84202DA10F1040F06DA0121CDE9011040
:101DF00015E0AAF10101E9E7002805DC0499014496
:101E00000491AAEB000102E0411C514500DD8A4625
:101E10000499401A401C01904FF0004002902007A6
:101E200004D40198504501DBCDF8048000208DF8E2
:101E30004F0002980DF14F07B0F1004F25D02B2035
:101E40000E9002984FF0020800280CDA40420290EF
:101E50002D200E9007E00A210298FEF76EFA30312D
:101E6000029007F8011DB8F10001A8F10108F2DCA9
:101E700002980028EFD1791E0E980870307800F093
:101E8000200040F0450007F8020D12A8C01B00F129
:101E900007081498007800B1012000EB0A010198AE
:101EA00001EBE07105984144401A401E0590E003A3
:101EB00006D45B462146179A059800F05DF8054464
:101EC0001498007818B15A46179990476D1CE00392
:101ED00024D55B462146179A059800F04DF8054435
:101EE0001CE00498002807DBDDE90301884203DDDC
:101EF0000098405C179901E0179930205A469047A6
:101F0000049805F10105401C04900198401E0190C1
:101F100004D12E205A46179990476D1CBAF1000142
:101F2000AAF1010ADDDC05E017F8010B5A46179902
:101F300090476D1CB8F10001A8F10108F4DC5B4684
:101F40002146179A0598ABE62D0000002B000000F3
:101F5000200000002DE9F041044600251E461746EA
:101F6000880404D405E039462020B0476D1C641E67
:101F7000F9D52846BDE8F0812DE9F0410446002559
:101F80001E469046C80301D5302700E0202788046C
:101F900004D505E041463846B0476D1C641EF9D5AE
:101FA0002846BDE8F081000070B504460420FFF724
:101FB000C3F80C48047025464FF47A70454301205D
:101FC000094908804FF0E020006940F002004FF01E
:101FD000E021086108464561006940F001000861A0
:101FE00070BD00006C0000206E0000202DED028B03
:101FF00016E00C4890ED000ADFED0B0A30EE200AE7
:1020000080ED000A0068FEF785F941EC180B53ECEF
:10201000182B06A0FFF74EFB4FF4FA6001F0C6F94B
:10202000E7E70000000100200AD7233C5468652040
:10203000666C6F61745F6E756D2069732025660D27
:102040000A00000000BF054A128802F04002002A80
:10205000F9D0C2B2014B1B1D1A80704700440040EA
:1020600008E04FF480610448FEF7E9FC4FF4FA7091
:1020700001F09CF9F5E7000000140240012001F096
:10208000ABFC114908601EE000235A1E19460E4899
:10209000006801F0EDFC4FF400610C48FEF7CDFC48
:1020A000C82001F083F94FF400610848FEF7C3FC33
:1020B0004FF4487001F07AF900231A461946024895
:1020C000006801F011FEDFE7480000200014024024
:1020D0001CB54FF44070FEF77DFEA820FFF764FFAB
:1020E00000F0E2F90E480068FFF7FEF80322002135
:1020F000012001F083FC0B4908600BA10E48FFF79B
:10210000C5FA0E48012164238022CDE900100CA1FC
:102110000D4802F021F801F0E5FA00201CBD000096
:102120004C00002050000020496E6974696C697A87
:1021300065204F4B0D0A00000044004024000020A1
:102140007374617274000000A92E000810B5044673
:1021500003220021012001F051FC206000231A46D7
:102160001946206801F0C0FD002010BD10B50446DE
:1021700000235A1E1946206801F07AFC10BD70B584
:1021800004460D46206810B94FF0FF3070BD0023A3
:102190002A461946206801F06BFCF7E710B50446A3
:1021A00000231A461946206801F09EFD10BD00006C
:1021B0002DE9F04105460E461C4807681C4800689A
:1021C000001D00F035FF50B91948006890F82C1038
:1021D0000120884017490968814316480160681C3E
:1021E00038B936B112480168091D134800F05EFF86
:1021F0001AE07C190E4800684460BC4207D20C48C3
:102200000168091D0D48006800F036FF0CE0084821
:102210000168091D0A48006800F02EFF094800689F
:10222000844201D207480460BDE8F0819C00002090
:1022300088000020A0000020C005002090000020A1
:102240008C000020B800002010B5044600F03AFFD2
:1022500024480068401C234908602348006840B9AE
:10226000214804600846006801280DD100F01EFADC
:102270000AE01E48006838B91B480068C06AE16A75
:10228000884201D81848046019480068401C184961
:10229000086008460068606494F82C1001208840AB
:1022A00014490968084313490860E16A01EB810198
:1022B000114A02EB8100211D00F0F8FE00F046FFFC
:1022C0000A48006868B108480068C06AE16A884244
:1022D00007D24FF0805009490860BFF34F8FBFF31A
:1022E0006F8F10BD9800002088000020A4000020FF
:1022F000B4000020A0000020F002002004ED00E067
:1023000010B500F0DFFE10480068D0B90F4800F0AB
:10231000A3FE0F4800F0A0FE0C480E4908600C48D0
:102320000D49086000221021052001F067FB0649D5
:1023300008600846006820B108A10348006800F062
:10234000F9FF00F003FF10BDCC000020D4050020F1
:10235000E8050020C4000020C8000020546D725120
:102360000000000070B523E001F012FA1348006885
:1023700008B9012000E00020054602F0A9F8BDB927
:1023800000F0A0FE0D48C068C468201D00F050FE9B
:102390000B480068401E0A4908600A480068401E51
:1023A0000849086000F0D2FE204600F060F800BF47
:1023B000044800680028D7D170BD0000AC0500209B
:1023C000980000209400002070B504460D46206C53
:1023D00070B1216CE0680844E0606168E0688842A0
:1023E00001D32068E0602846226CE168FDF748FFD1
:1023F00070BD2DE9F04104460F4615464FF0000828
:10240000A66B206C40B9206860BB606801F09AFF41
:1024100080460020606025E07DB93946226CA068C6
:10242000FDF72EFF216CA0680844A060D4E90110DC
:10243000884217D32068A06014E03946226CE06817
:10244000FDF71EFF216CE068401AE0602168E0683B
:10245000884203D2216C6068401AE060022D01D1ED
:1024600006B1761E701CA0634046BDE8F08110B531
:102470000446206B00F0A2FE204600F09FFE10BD37
:102480000146084A126812680AB9012200E00022D7
:102490000A600A6822B9034A1268D268106800E02C
:1024A00000207047C400002010B5FEF733FC4FF445
:1024B000E13000F067FDFEF713FCFEF7A1FFFEF729
:1024C000B9FE142205490648FEF77CFD1422054991
:1024D0000548FEF777FDFEF787FC10BD8001002060
:1024E00068010020940100207401002030B54FF4F1
:1024F000A043174800F007042CB1C01D20F00700CE
:10250000134C041B1B1B0246124C22600024114D6D
:102510006C60D018083820F007000F4C20600024B1
:102520000D4D2D686C600C4D2D682C601146441AC1
:102530004C60094C24680C60084D4C682C60084DB8
:102540004C682C604FF00044064D2C6030BD0000FC
:10255000FC050020D8000020E0000020E80000205A
:10256000E4000020EC00002000BFFFF7FBFE06485F
:1025700000680128F9D94FF0805004490860BFF382
:102580004F8FBFF36F8FF0E7F002002004ED00E003
:1025900010B504464CB1002060602060E06000236C
:1025A0001A461946204601F09FFB10BD2DE9F04167
:1025B00006460D4617469846069C0DB9246000E075
:1025C0002760E66325640121204601F035FB84F88D
:1025D00050800020A064BDE8F08100002DE9F05F8C
:1025E00082460F4690469B460A9E0C9C4FEA880105
:1025F000A522206BFDF756FEA8F10100216B01EB2F
:10260000800929F0070909F0070008B9012000E056
:10261000002028B940F22B321BA120A0FFF74AF876
:10262000002507E0795D04F134004155785D00B97B
:1026300002E06D1C102DF5D300BF00214320015591
:10264000202E00D31F26E662E66400202065201DB0
:1026500000F00FFD04F1180000F00BFD2461C6F13D
:102660002000A06164620020606584F858005A462A
:102670005146484600F002FC20600B9808B10B98C8
:102680000460BDE8F09F00002E2E5C467265655226
:10269000544F535C7461736B732E63004572726F99
:1026A000723A25732C25640D0A00000010B5002431
:1026B00007E004EB84010F4A02EB810000F0CCFC40
:1026C000641C202CF5D30C4800F0C6FC0B4800F02D
:1026D000C3FC0B4800F0C0FC0A4800F0BDFC0A48EF
:1026E00000F0BAFC04480949086004480849086039
:1026F00010BD0000F00200207005002084050020BD
:1027000098050020AC050020C00500208C000020AA
:102710009000002010B50146164800E000680368EC
:102720008B42FBD30246436813448B4204D1436877
:102730004C682344436001460A464B6813440468CE
:10274000A34211D10C4C03682468A34208D04B6803
:102750000468646823444B6003681B680B6005E0F1
:10276000054B1B680B6001E003680B60884200D0DA
:10277000016010BDD8000020E00000202DE9F041EC
:1027800004460D4616461F464FF00008656024615A
:10279000B5420CD8F01BA169884202D34FF0010862
:1027A00011E0211D0948006800F066FC0BE0BE4204
:1027B00004D2BD4202D34FF0010804E0211D0448B9
:1027C000006800F059FC4046BDE8F081C8000020D8
:1027D000C400002070B5054600F074FCA86B08B971
:1027E000012400E0002400F0B1FC204670BD70B56B
:1027F000054600F067FCA86BE96B884201D1012413
:1028000000E0002400F0A2FC204670BD2DE9F34159
:102810000D460098846C00272CB940F6CE121AA100
:102820001EA0FEF747FFA06BE16B884201D201209A
:1028300000E0002028B940F6CF1213A117A0FEF740
:1028400039FFA06BE16B88421BD294F945602A46A0
:1028500069462046FFF7CDFD0746701C60B9606AE7
:1028600008B9012000E0002050B904F1240001F073
:10287000D5FD28B1012703E0701C40B284F8450063
:1028800000BF3846BDE8FC812E2E5C46726565525D
:10289000544F535C71756575652E63004572726F98
:1028A000723A25732C25640D0A000000F8B5054620
:1028B0000F4613480068C068C468201D00F0B8FBCC
:1028C000E069012818D1A06941192B463A462046F3
:1028D000FFF754FF80B1002003462A4601460090CE
:1028E000204601F0BFFE06462EB94FF4027205A144
:1028F0000AA0FEF7DFFE00BF2046616A8847F8BDE8
:10290000C40000202E2E5C4672656552544F535C05
:1029100074696D6572732E63000000004572726FFA
:10292000723A25732C25640D0A000000F0B587B0BB
:1029300070E0039800280CDA04AE2EB940F2E722CA
:102940003AA140A0FEF7B6FED6E90020B168904754
:1029500000BF039800285DDB059C606908B9012071
:1029600000E0002010B9201D00F062FB02A800F07A
:10297000C7F8054603980A284AD2DFE800F009059F
:10298000072C2E4506082D2F00BF00BF00BF00BF3B
:102990000498A269811803462A462046FFF7EEFEF6
:1029A000C0B12046616A8847E069012812D1002041
:1029B00000900498A169421800231946204601F0AE
:1029C00051FE07462FB940F2213218A11DA0FEF793
:1029D00071FE00BF1DE000BF1BE000BF0498A061B6
:1029E000A06908B1012000E0002028B94FF44E7220
:1029F0000EA114A0FEF75EFEA06941192B462A46DF
:102A00002046FFF7BBFE04E0204600F0D7FB00E0C5
:102A100000BF00BF00231A4603A90E48006801F05A
:102A200027F8002885D107B0F0BD00002E2E5C46A7
:102A300072656552544F535C74696D6572732E6391
:102A4000000000004572726F723A25732C25640DE8
:102A50000A000000CC000020F8B505460C4600F046
:102A600097FE684600F04CF80646009820BB44B933
:102A7000B54206D801F02CFD31462846FFF716FF77
:102A80001CE03CB10E480068006808B9012000E075
:102A900000200446A91B22460A48006800F060FC9A
:102AA00001F016FD50B94FF0805007490860BFF3A0
:102AB0004F8FBFF36F8F01E001F00AFDF8BD0000FA
:102AC000C8000020CC00002004ED00E00A4909689D
:102AD000096809B9012100E0002121B14FF0FF315F
:102AE000064A116006E004490968C968C868034AD3
:102AF00041681160704700008C000020B800002081
:102B000070B5044601F068FB054607480068854239
:102B100004D200F00BF80120206001E000202060CA
:102B200001480560284670BDD40000202DE9F84317
:102B30002DE021480068C06805681F480068C0682B
:102B4000C468201D00F074FA2046616A8847E06975
:102B500001281CD1A0694619AE4207D966602461DC
:102B6000211D1548006800F087FA10E00020034698
:102B70002A4601460090204601F074FD07462FB911
:102B800040F292320DA113A0FEF794FD00BF0A4857
:102B90000068006808B9012000E000200028C8D0C3
:102BA0000548D0F800800F480068034908600D48C8
:102BB000C0F80080BDE8F883C40000202E2E5C46DB
:102BC00072656552544F535C74696D6572732E6300
:102BD000000000004572726F723A25732C25640D57
:102BE0000A000000C80000200C480068401C08B91A
:102BF000012000E0002028B940F20F1208A113A024
:102C0000FEF758FD00BF502080F31188BFF34F8FAF
:102C1000BFF36F8F00BF00BFFEE70000F000002091
:102C20002E2E5C4672656552544F535C706F727401
:102C300061626C655C525644535C41524D5F434D3A
:102C400034465C706F72742E630000004572726FC0
:102C5000723A25732C25640D0A00000008B500BFE8
:102C60006846FFF70DFC044620460099FFF7F4FE86
:102C7000FFF75CFEF4E770B5044600F023FA94F920
:102C800045501AE0A06C38B100212046FFF7BEFD88
:102C900088B100F04BFC0EE0606A08B9012000E04A
:102CA000002038B904F1240001F0B8FB18B100F09D
:102CB0003DFC00E003E0681E45B2002DE2DC00BFF1
:102CC000FF2084F8450000F041FA00F0FBF994F988
:102CD000445010E0206908B9012000E0002048B904
:102CE00004F1100001F09AFB08B100F01FFC681E0F
:102CF00045B200E001E0002DECDC00BFFF2084F8CD
:102D0000440000F023FA70BD2DE9F04104464FF075
:102D1000000800F03DFD3E48006808B9FFF7E6FBFB
:102D20003C480068204000285FD1A4B1083404F07A
:102D3000070080B104F00700C0F10800044404F06B
:102D4000070008B9012000E0002020B9BF2232A10D
:102D50003BA0FEF7AFFC002C47D03D480068844202
:102D600043D83C4E3046056801E02E462D68686821
:102D7000A04202D228680028F7D125480068854281
:102D800033D0306800F10808286830606868001B9C
:102D9000102813D92F1907F0070008B9012000E007
:102DA000002020B9EC221CA125A0FEF783FC686856
:102DB000001B78606C603846FFF7ACFC24496868FB
:102DC0000968081A2249086008460068224909680B
:102DD000884203D21E4800681F4908600D49686890
:102DE0000968084368600020286001F071FB08F062
:102DF000070008B9012000E0002028B94FF49672BE
:102E000005A10FA0FEF756FC4046BDE8F08100008A
:102E1000E0000020EC0000202E2E5C46726565521A
:102E2000544F535C706F727461626C655C4D656D7C
:102E30004D616E675C686561705F342E63000000F1
:102E40004572726F723A25732C25640D0A000000DA
:102E5000E4000020D8000020E800002006480068B8
:102E600030B10549096801F15000096D491C016044
:102E7000014800687047000088000020001F4FF0E4
:102E800080730360001F21F001030360001F054BE6
:102E9000036014380260001F6FF0020303602038E3
:102EA00070470000E92B00081CB5044600F00AF941
:102EB0001D48022100238022CDE900101BA11D48DE
:102EC00001F04AF91C48032100238022CDE90010BB
:102ED0001AA11C4801F040F91B480421002380225C
:102EE000CDE9001019A11B4801F036F91A48052157
:102EF00000234FF48062CDE9001018A11B4801F0B7
:102F00002BF91B48052100234FF48062CDE9001006
:102F100018A11A4801F020F91948006800F080FA59
:102F200000F014F91CBD0000280000206C6564301E
:102F300000000000612000082C0000206C65643156
:102F4000000000007D20000830000020666C6F61EA
:102F500074000000ED1F0008340000204553503875
:102F60003236365F50616C7365000000E10800087E
:102F70003C00002041545F5465737400A1080008B0
:102F80002400002010B588B0044601210846FDF752
:102F900075FF01211020FDF791FF0722092122482A
:102FA000FDF726FD07220A211F48FDF721FD4FF4FA
:102FB000C060069002208DF81C008DF81D000020D6
:102FC0008DF81E0001208DF81F0006A91648FDF798
:102FD000C7FC02940020ADF80C00ADF80E00ADF86F
:102FE0001000ADF814000C20ADF8120002A90F4833
:102FF000FEF7C8FA01210D48FEF75CFA012240F203
:1030000025510A48FEF799FA25208DF8040003207F
:103010008DF805008DF8060001208DF8070001A845
:10302000FDF79CFE08B010BD0000024000100140FA
:1030300001460A69D1E901309860D1E9010358607D
:103040005068884201D1886850600020086110688B
:10305000401E10601068704700F1080141604FF099
:10306000FF31816000F10801C16001610021016050
:10307000704700210161704710B502460B685C1C67
:103080000CB9106907E002F1080000E040684468EC
:1030900024689C42FAD944684C604C68A1608860FE
:1030A00041600A611468641C146010BD42684A6083
:1030B00093688B60936859609160086103685B1C3A
:1030C0000360704710B500BF502080F31188BFF334
:1030D0004F8FBFF36F8F00BF0B480068401C0A4939
:1030E00008600846006801280DD108480068C0B291
:1030F00008B9012000E0002028B940F2B91204A16B
:103100000EA0FEF7D7FA10BDF000002004ED00E09D
:103110002E2E5C4672656552544F535C706F72740C
:1031200061626C655C525644535C41524D5F434D45
:1031300034465C706F72742E630000004572726FCB
:10314000723A25732C25640D0A00000010B50B4857
:10315000006828B94FF4E07209A114A0FEF7AAFA9A
:1031600006480068401E054908600846006820B906
:10317000002080F3118800BF00BF10BDF0000020C8
:103180002E2E5C4672656552544F535C706F72749C
:1031900061626C655C525644535C41524D5F434DD5
:1031A00034465C706F72742E630000004572726F5B
:1031B000723A25732C25640D0A00000070B506468E
:1031C0003546002E35D0083D2C461A4960680968FE
:1031D000084008B1012000E0002028B94FF4A07297
:1031E00015A11FA0FEF766FA206808B9012000E0CB
:1031F000002028B940F241120FA119A0FEF75AFA97
:103200000C4960680968084098B1206888B9094984
:10321000606809688843606000F0BAFA1449606821
:1032200009680844124908602046FFF773FA01F064
:103230004FF970BDEC0000202E2E5C467265655281
:10324000544F535C706F727461626C655C4D656D58
:103250004D616E675C686561705F342E63000000CD
:103260004572726F723A25732C25640D0A000000B6
:10327000E4000020064800684FF47A71B0FBF1F0DA
:10328000401E4FF0E02148610720086170470000B0
:103290000000002070B5FCF7D9FF0546102D11D3B2
:1032A00005F1E02090F8F04310480078844201DBFB
:1032B000012000E0002028B94FF440720CA117A0B3
:1032C000FEF7F8F91948006800F4E0601849096849
:1032D000884201D8012000E0002028B94FF4447250
:1032E00003A10EA0FEF7E6F970BD0000F400002077
:1032F0002E2E5C4672656552544F535C706F72742B
:1033000061626C655C525644535C41524D5F434D63
:1033100034465C706F72742E630000004572726FE9
:10332000723A25732C25640D0A0000000CED00E0B4
:10333000F8000020024600200BE0084B53F8303024
:1033400033B9064B43F8301003EBC0035A6002E078
:10335000401C0828F1D300BF70470000B0020020D5
:103360002DE9F04105460E4617462C46FFF7AAFE0A
:1033700094F94400401C10B9002084F8440094F9EA
:103380004500401C10B9002084F84500FFF7DEFE20
:10339000A06B28B93A46314604F1240000F0F6F853
:1033A0002046FFF768FCBDE8F081000070B50446D8
:1033B0000025ACB10F48006808B9012000E00020EA
:1033C00028B940F2CF420CA110A0FEF773F900F02B
:1033D000DFF900212046FEF7EBFE01F079F8054603
:1033E0003DB94FF080500D490860BFF34F8FBFF3D8
:1033F0006F8F70BDC00000202E2E5C467265655236
:10340000544F535C7461736B732E63004572726F1B
:10341000723A25732C25640D0A00000004ED00E0CB
:1034200070B50546FFF74EFE15B92D48006800E05F
:1034300028460446201DFFF7FBFD78B9E06A00EB43
:103440008000284951F8200040B994F82C10012040
:10345000884025490968814323480160A06A18B162
:1034600004F11800FFF7E4FD20480068401C1F49E4
:1034700008601B480068844209D1211D1C48FFF7E1
:1034800015FE1C480068401C1A49086009E01A48EB
:103490000068401E184908602046FEF7E8FFFFF765
:1034A00015FBFFF753FE15480068C0B10C480068D3
:1034B000844214D11248006808B9012000E00020BD
:1034C00028B940F265420FA113A0FEF7F3F84FF0C0
:1034D000805015490860BFF34F8FBFF36F8F70BDE9
:1034E00088000020F0020020A0000020B40000208E
:1034F000AC0500209400002098000020A4000020CB
:10350000C00000202E2E5C4672656552544F535CFD
:103510007461736B732E63004572726F723A257318
:103520002C25640D0A00000004ED00E00120014993
:1035300008607047AC00002070B504460D462CB9F9
:1035400040F6063207A10CA0FEF7B4F80E48016859
:1035500018312046FFF790FD01212846FEF728FE8E
:1035600070BD00002E2E5C4672656552544F535C50
:103570007461736B732E63004572726F723A2573B8
:103580002C25640D0A0000008800002070B5054657
:103590000E4614462DB940F6313209A10DA0FEF7B2
:1035A00089F81048016818312846FFF77FFD0CB1F3
:1035B0004FF0FF3621463046FEF7FAFD70BD0000A1
:1035C0002E2E5C4672656552544F535C7461736B6A
:1035D000732E63004572726F723A25732C25640D49
:1035E0000A0000008800002070B505462C46002D1A
:1035F0004BD02649E06A0968C96A884245D2A06969
:1036000000F0004028B921480068C06AC0F12000DD
:10361000A061E16A01EB81011D4A02EB8101606951
:10362000884201D1012000E0002050B3201DFFF7A7
:10363000FFFC78B9E06A00EB8000154951F82000E2
:1036400040B994F82C100120884012490968814340
:10365000104801600D480068C06AE06294F82C10C0
:10366000012088400B49096808430A490860E16A5B
:1036700001EB8101064A02EB8100211DFFF716FDD7
:1036800003E002480068C06AE06270BD8800002064
:10369000F0020020A000002010B504462CB940F62E
:1036A000C13205A109A0FEF705F80C4800682060AA
:1036B0000B480068606010BD2E2E5C467265655236
:1036C000544F535C7461736B732E63004572726F59
:1036D000723A25732C25640D0A000000B00000200A
:1036E0009C0000201CB51A4800210B468222CDE91F
:1036F000001018A1194800F02FFD0446012C02D13A
:1037000000F076FF0446012C15D100BF502080F355
:103710001188BFF34F8FBFF36F8F00BF4FF0FF30A3
:103720000F49086001200F49086000200E49086019
:1037300000F08AF80BE0601C08B1012000E00020D6
:1037400028B940F2847209A10DA0FDF7B3FF1CBD9A
:10375000BC00002049444C450000000069250008D9
:10376000B8000020A40000209C0000202E2E5C4603
:1037700072656552544F535C7461736B732E6300B2
:103780004572726F723A25732C25640D0A00000091
:1037900002480068401C014908607047C0000020D2
:1037A00010B51B48006818B101201A4908602DE0C7
:1037B00000201849086018480068B0FA80F0C0F18D
:1037C0001F0404EB8400154951F8200008B10120C2
:1037D00000E0002028B940F6F62211A115A0FDF75F
:1037E00069FF04EB84010D4A02EB810041684968DE
:1037F000416000F1080142688A4202D1416849688B
:1038000041604168C9680F4A116000BF10BD0000E7
:10381000C0000020AC000020A0000020F00200202A
:103820002E2E5C4672656552544F535C7461736B07
:10383000732E63004572726F723A25732C25640DE6
:103840000A000000880000201CB54048006840497C
:10385000884201D0012000E0002028B940F259122E
:103860003CA147A0FDF726FF384800683849491EAB
:10387000884201D0012000E0002028B94FF4AD7249
:1038800034A13FA0FDF716FF414C2046007801907F
:10389000FF20214608700846007800909DF800003F
:1038A00000F0F0009DF80010884201D1012000E0F6
:1038B000002028B940F2731226A131A0FDF7FAFECC
:1038C0009DF8000000F0500032490870072032498E
:1038D000086009E030480068401E2F4908609DF8E4
:1038E00000004006000E00909DF8000000F08000EF
:1038F0008028EFD028480068000227490860084661
:10390000008800F4E06008602149019808700F48C1
:103910002030006840F470000C49203108600846EF
:10392000006840F070400860FFF7A4FC00201B49CD
:103930000860FCF753FC1A48006840F04040184902
:103940000860FCF73BFC00201CBD000000ED00E01F
:1039500071C20F412E2E5C4672656552544F535C06
:10396000706F727461626C655C525644535C415274
:103970004D5F434D34465C706F72742E63000000DF
:103980004572726F723A25732C25640D0A0000008F
:1039900000E400E0F4000020F8000020F000002027
:1039A00034EF00E010B500BF502080F31188BFF362
:1039B0004F8FBFF36F8F00BF00F014FC18B14FF0B2
:1039C00080500449086000BF002080F3118800BFC8
:1039D00010BD000004ED00E02DE9F0410446012691
:1039E000002722460021012000F008F8054628465D
:1039F000FEF7CEFD2846BDE8F08100002DE9F84332
:103A000005460E4690460DB1012000E0002028B981
:103A10004FF4C4720DA112A0FDF74CFE0EB90027A1
:103A200001E005FB06F707F15400FFF76DF90446C6
:103A300044B104F1540943464A46314628460094AD
:103A4000FEF7B4FD2046BDE8F88300002E2E5C464C
:103A500072656552544F535C71756575652E6300D0
:103A60004572726F723A25732C25640D0A000000AE
:103A70002DE9FF4782B005460E461F464FF0000A6B
:103A80002C462CB940F2DC4261A166A0FDF712FE83
:103A90000EB9206C08B9012000E0002028B940F2DE
:103AA000DD425BA15FA0FDF705FE00F085FB08B9D4
:103AB000049808B9012000E0002028B94FF49C6266
:103AC00053A158A0FDF7F6FD00BFFFF7FBFAD4F8AD
:103AD0003890B9F1000F3DD0D4F80C803146204623
:103AE000FEF772FCDFB9A9F10100A063206810B9EC
:103AF000FFF7B4F96060206908B9012000E00020F8
:103B000010BB04F1100000F089FCE8B14FF08050C8
:103B100048490860BFF34F8FBFF36F8F14E0C4F8BC
:103B20000C80606A08B9012000E0002060B904F14F
:103B3000240000F073FC38B14FF080503D4908601C
:103B4000BFF34F8FBFF36F8FFFF700FB012006B06D
:103B5000BDE8F087049818B9FFF7F8FA0020F6E7F7
:103B6000BAF1000F04D16846FFF796FD4FF0010A45
:103B7000FFF7ECFAFFF70CFEFFF7A4FA94F9440004
:103B8000401C10B9002084F8440094F94500401C02
:103B900010B9002084F84500FFF7D8FA04A9684658
:103BA00000F08AFA40BB2046FEF714FEF0B1206810
:103BB00030B9FFF787FA6068FFF716FDFFF7C6FA1E
:103BC00004F124000499FFF7B7FC2046FFF753F8EF
:103BD00000F07EFC00287FF478AF4FF0805015494C
:103BE0000860BFF34F8FBFF36F8F6EE72046FFF77C
:103BF00042F800F06DFC68E72046FFF73CF800F063
:103C000067FC2046FEF7E6FD0028EED000209EE788
:103C10002E2E5C4672656552544F535C7175657506
:103C2000652E63004572726F723A25732C25640D00
:103C30000A00000004ED00E070B505460E462C4673
:103C40002CB940F21B121EA122A0FDF733FDFFF795
:103C500039FAD4E90F12206801FB020060600020ED
:103C6000A0632068A060E06B401E226C216800FB0E
:103C70000210E060FF2084F8440084F845009EB9FB
:103C8000206908B9012000E00020A8B904F1100063
:103C900000F0C4FB80B14FF0805012490860BFF3C0
:103CA0004F8FBFF36F8F07E004F11000FFF7D4F9D7
:103CB00004F12400FFF7D0F9FFF748FA012070BDA6
:103CC0002E2E5C4672656552544F535C7175657556
:103CD000652E63004572726F723A25732C25640D50
:103CE0000A00000004ED00E02DE9FF4383B0064622
:103CF00088461D464FF0000934462CB940F2D922BF
:103D000060A165A0FDF7D6FCB8F1000F01D1206CD1
:103D100008B9012000E0002028B940F2DA2259A1B8
:103D20005DA0FDF7C7FC022D02D1E06B012801D197
:103D3000012000E0002028B940F2DB2251A156A06A
:103D4000FDF7B8FC00F038FA08B9059808B9012069
:103D500000E0002028B940F2DE224AA14EA0FDF783
:103D6000A9FC00BFFFF7AEF9A06BE16B884201D35D
:103D7000022D38D12A4641462046FEF73AFB074637
:103D8000A06C68B129462046FEF740FD28B34FF0ED
:103D9000805045490860BFF34F8FBFF36F8F1CE021
:103DA000606A08B9012000E0002068B904F124002D
:103DB00000F034FB88B14FF080503B490860BFF3FE
:103DC0004F8FBFF36F8F08E03FB14FF080503649FF
:103DD0000860BFF34F8FBFF36F8FFFF7B7F9012074
:103DE00007B0BDE8F083059818B9FFF7AFF90020D8
:103DF000F6E7B9F1000F04D101A8FFF74DFC4FF031
:103E00000109FFF7A3F9FFF7C3FCFFF75BF994F98A
:103E10004400401C10B9002084F8440094F9450087
:103E2000401C10B9002084F84500FFF78FF905A960
:103E300001A800F041F9F0B92046FEF7D8FCA0B186
:103E400004F110000599FFF777FB2046FEF713FFFA
:103E500000F03EFB002885D14FF0805012490860E9
:103E6000BFF34F8FBFF36F8F7CE72046FEF703FF52
:103E700000F02EFB76E72046FEF7FDFE00F028FB63
:103E80000020ADE72E2E5C4672656552544F535CA0
:103E900071756575652E63004572726F723A257390
:103EA0002C25640D0A00000004ED00E02DE9F05F10
:103EB00080468A4615461E4644462CB940F29F323B
:103EC00035A13AA0FDF7F6FBBAF1000F01D1206C45
:103ED00008B9012000E0002028B94FF468722EA133
:103EE00032A0FDF7E7FB022E02D1E06B012801D1E1
:103EF000012000E0002028B940F2A13226A12BA029
:103F0000FDF7D8FBFFF7C6F900BF5021EFF3118092
:103F100081F31188BFF34F8FBFF36F8F00BF074648
:103F2000A06BE16B884201D3022E2BD194F945B0EE
:103F3000324651462046FEF75CFA0BF10100C8B943
:103F4000A06C40B131462046FEF760FCB8B1B5B177
:103F50000120286013E0606A08B9012000E0002019
:103F600068B904F1240000F059FA40B13DB10120D4
:103F7000286004E00BF1010040B284F845004FF0E6
:103F8000010901E04FF0000900BF87F3118800BF6D
:103F90004846BDE8F09F00002E2E5C4672656552D3
:103FA000544F535C71756575652E63004572726F71
:103FB000723A25732C25640D0A0000002DE9F047A4
:103FC00007460D463C462CB940F23C4231A136A092
:103FD000FDF770FB206C08B9012000E0002028B933
:103FE0004FF488622BA130A0FDF764FB206808B96C
:103FF000606808B9012000E0002028B940F245427D
:1040000024A129A0FDF756FBFFF744F900BF50217A
:10401000EFF3118081F31188BFF34F8FBFF36F8FE0
:1040200000BF0646D4F83890E06B484529D994F98A
:1040300045A009F10100A0630AF10100C8B9A06C14
:1040400040B100212046FEF7E1FBB8B1B5B1012037
:10405000286013E0606A08B9012000E0002068B918
:1040600004F1240000F0DAF940B13DB101202860EC
:1040700004E00AF1010040B284F845004FF0010865
:1040800001E04FF0000800BF86F3118800BF4046F2
:10409000BDE8F0872E2E5C4672656552544F535C26
:1040A00071756575652E63004572726F723A25737E
:1040B0002C25640D0A0000002DE9F04104460D4650
:1040C0002CB940F6CB3219A11DA0FDF7F3FA2DB99A
:1040D00040F6CC3215A11AA0FDF7ECFAFEF7F2FF7C
:1040E0001B4807682868401C08B9002619E01949D0
:1040F00020680968884204D06068B84201D8012667
:104100000FE06068381A2968884209D22868616817
:10411000791A401A28602046FFF7BEFA002600E010
:104120000126FFF713F83046BDE8F0812E2E5C46DD
:1041300072656552544F535C7461736B732E6300E8
:104140004572726F723A25732C25640D0A000000C7
:104150009C000020B00000202DE9FF4F85B0804674
:1041600089461746DDE912ABB800FEF7CDFD0646DD
:1041700056B15C20FEF7C8FD04460CB1266304E08E
:104180003046FFF71BF800E000247CB10020CDE9A9
:1041900000ABCDE902403A4649464046089BFEF74F
:1041A0001DFA2046FEF750F8012501E04FF0FF35DB
:1041B000284609B0BDE8F08F0549096809B9012012
:1041C00005E00449096809B9022000E000207047B1
:1041D000A4000020C00000200149086870470000CA
:1041E0009C0000202DE9F0414FF000084148006894
:1041F000002872D140480068451C3F480560EDB971
:104200003E480068006808B9012000E0002028B995
:1042100040F6D9123AA13FA0FDF74CFA374807689B
:1042200040480068354908603E4807603E480068DD
:10423000401C3D490860FEF749FC00BF3B48006850
:1042400085423CD300BF2D480068006808B90120B2
:1042500000E0002020B14FF0FF30344908602DE02D
:1042600026480068C068C4686668B54202D22F4814
:10427000066023E0201DFEF7DBFEA06A18B104F102
:104280001800FEF7D5FE94F82C100120884028492C
:104290000968084326490860E16A01EB8101254A63
:1042A00002EB8100211DFEF701FF2349E06A096846
:1042B000C96A8842C7D34FF00108C4E700BF1E484F
:1042C0000068C06A00EB80001A4951F820000128FC
:1042D00001D94FF0010805E0FFE718480068401CCD
:1042E000164908601648006808B14FF001084046BA
:1042F000BDE8F081C00000209C0000208C00002060
:104300002E2E5C4672656552544F535C7461736B1C
:10431000732E63004572726F723A25732C25640DFB
:104320000A00000090000020B0000020B80000202B
:10433000A0000020F002002088000020A80000203B
:10434000AC00002070B505462C460026002D4BD051
:1043500026480068844201D1012000E0002028B9ED
:1043600040F6C76222A127A0FDF7A4F9206D28B965
:1043700040F6C9621EA123A0FDF79CF9206D401EE6
:104380002065E16CE06A88422ED0206D60BB201D64
:10439000FEF74EFE78B9E06A00EB80001D4951F847
:1043A000200040B994F82C10012088401A4909686F
:1043B000814319480160E06CE062E06AC0F12000CE
:1043C000A06194F82C100120884013490968084323
:1043D00011490860E16A01EB81010E4A02EB81009C
:1043E000211DFEF763FE0126304670BD88000020C7
:1043F0002E2E5C4672656552544F535C7461736B2C
:10440000732E63004572726F723A25732C25640D0A
:104410000A000000F0020020A000002070B506464F
:10442000F068C4682CB940F661321AA11EA0FDF7ED
:1044300041F904F11800FEF7FBFD1F480068A8B918
:10444000201DFEF7F5FD94F82C10012088401B4933
:104450000968084319490860E16A01EB8101184ABB
:1044600002EB8100211DFEF721FE04E004F118019A
:104470001448FEF71BFE1449E06A0968C96A8842BD
:1044800004D9012501201149086000E000252846D3
:1044900070BD00002E2E5C4672656552544F535C11
:1044A0007461736B732E63004572726F723A257379
:1044B0002C25640D0A000000C0000020A000002090
:1044C000F00200209805002088000020AC000020A9
:1044D00070B5002400263448006828B94FF4FD6206
:1044E00032A137A0FDF7E6F8FEF7ECFD2E48006894
:1044F000401E2D4908600846006800284FD1344806
:10450000006800284BD024E03248C068C46804F139
:104510001800FEF78DFD201DFEF78AFD94F82C1083
:10452000012088402C49096808432B490860E16A4A
:1045300001EB8101294A02EB8100211DFEF7B6FD46
:104540002749E06A0968C96A884202D301202549DF
:1045500008602048006808B9012000E00020002819
:10456000D2D00CB1FEF7B2FA1F48056865B100BFA2
:10457000FFF738FE10B101201A4908606D1E002DAA
:10458000F6D10020184908601648006838B10126A5
:10459000300716490860BFF34F8FBFF36F8FFEF7E8
:1045A000D5FD304670BD0000C00000202E2E5C46B8
:1045B00072656552544F535C7461736B732E630064
:1045C0004572726F723A25732C25640D0A00000043
:1045D0009800002098050020A0000020F002002094
:1045E00088000020AC000020A800002004ED00E0BE
:1045F0001CB50024FDF784FE0B48006858B10B4839
:104600001F2100234FF48272CDE9001008A10A484F
:10461000FFF7A2FD04462CB940F2331207A10DA00A
:10462000FDF748F820461CBDCC000020D00000203B
:10463000546D7220537663005D2C00082E2E5C466C
:1046400072656552544F535C74696D6572732E6365
:10465000000000004572726F723A25732C25640DBC
:104660000A0000002DE9FF4704460D4616461F4686
:10467000DDF830804FF000092CB94FF4D37217A148
:104680001CA0FDF717F81F48006810B300950196AD
:104690000294062D15DAFFF78FFD022808D10023BA
:1046A0004246694617480068FFF71EFB814610E046
:1046B00000231A46694613480068FFF715FB814638
:1046C00007E000233A4669460E480068FFF7EEFB14
:1046D0008146484604B0BDE8F08700002E2E5C46B7
:1046E00072656552544F535C74696D6572732E63C5
:1046F000000000004572726F723A25732C25640D1C
:104700000A000000CC00002041540041542B4357C4
:104710004D4F44453D330041542B43574A41503D92
:10472000220041542B43494653520041542B4349E4
:104730005053544152543D22544350222C220041A4
:10474000542B4349504D4F44453D310041542B4378
:10475000495053454E440000404040404040404096
:104760004041414141414040404040404040404044
:104770004040404040404040050202020202020226
:104780000202020202020202202020202020202019
:10479000202002020202020202909090909090105B
:1047A0001010101010101010101010101010101009
:1047B0001010100202020202028888888888880885
:1047C0000808080808080808080808080808080869
:1047D000080808020202024058470008FC47000887
:1047E0000000002004010000D41600080049000861
:1047F000040100201C590000E4160008007A030A96
:104800000000000000000000010203040607080980
:104810000000000000000000000000000000000098
:104820000000000000000000000000000000000088
:104830000000000000000000000000000000000078
:104840000000000000000000000000000000000068
:104850000000000000000000000000000000000058
:104860000000000000000000000000000000000048
:104870000000000000000102030401020304060717
:104880000809000000000000000000000000000017
:104890000000000000000000000000000000000018
:1048A0000000000000000000000000000000000008
:1048B00000000000000000000000000000000000F8
:1048C00000000000000000000000000000000000E8
:1048D00000000000000000000000000000000000D8
:1048E000000000000000000000000000AAAAAAAA20
:1048F00000000000000000000000000000000000B8
:040000050800018965
:00000001FF
