:020000040800F2
:10000000D05800205502000839040008F103000808
:100010003504000811030008BF09000800000000B3
:100020000000000000000000000000009D0100082A
:100030001503000800000000F1010008ED060008AB
:100040006F0200086F0200086F0200086F020008CC
:100050006F0200086F0200086F0200086F020008BC
:100060006F0200086F0200086F0200086F020008AC
:100070006F0200086F0200086F0200086F0200089C
:100080006F0200086F0200086F0200086F0200088C
:100090006F0200086F0200086F0200086F0200087C
:1000A0006F0200086F0200086F0200086F0200086C
:1000B0006F0200086F0200086F0200086F0200085C
:1000C0006F0200086F0200086F0200086F0200084C
:1000D0006F020008650700086F0200086F02000841
:1000E0006F0200086F0200086F0200086F0200082C
:1000F0006F0200086F0200086F0200086F0200081C
:100100006F0200086F0200086F0200086F0200080B
:100110006F0200086F0200086F0200086F020008FB
:100120006F0200086F0200086F0200086F020008EB
:100130006F0200086F0200086F0200086F020008DB
:100140006F0200086F0200086F0200086F020008CB
:100150006F0200086F0200086F0200086F020008BB
:100160006F0200086F0200086F0200086F020008AB
:100170006F0200086F0200086F0200086F0200089B
:100180006F0200086F020008DFF80CD000F0AEF834
:10019000004800471D0C0008D05800202A4B196861
:1001A0000868B0E8F04F80F30988BFF36F8F4FF015
:1001B000000080F3118870470000000006480068C6
:1001C000006880F3088862B661B6BFF34F8FBFF353
:1001D0006F8F00DF00BF00BF08ED00E0DFF80C000C
:1001E000016841F470010160704700BF88ED00E0D4
:1001F000EFF30980BFF36F8F134B1A681EF0100FD7
:1002000008BF20ED108A20E9F04F106008B44FF0CD
:10021000500080F31188BFF34F8FBFF36F8F01F051
:10022000DBFE4FF0000080F3118808BC19680868F5
:10023000B0E8F04F1EF0100F08BFB0EC108A80F34A
:100240000988BFF36F8F704740000020EFF30580EF
:10025000704700000648804706480047FEE7FEE773
:10026000FEE7FEE7FEE7FEE7FEE7FEE7FEE7FEE766
:10027000FD0600088901000840EA01039B0703D03E
:1002800009E008C9121F08C0042AFAD203E011F8D5
:10029000013B00F8013B521EF9D27047D2B201E097
:1002A00000F8012B491EFBD270470022F6E710B57B
:1002B00013460A4604461946FFF7F0FF204610BDD4
:1002C00030B50B46014600202022012409E021FA26
:1002D00002F59D4205D303FA02F5491B04FA02F523
:1002E0002844151EA2F10102F1DC30BD064C074D79
:1002F00006E0E06840F0010394E8070098471034F6
:10030000AC42F6D3FFF744FF202E0008402E000831
:1003100000BFFEE77047F0B50A4600210023002425
:1003200000BF3DE0012505FA01F3156805EA030465
:100330009C4234D105684F000326BE40B54305609A
:1003400015794E00B5400668354305601579012DD5
:1003500002D01579022D16D185684F000326BE40C4
:10036000B543856055794E00B54086683543856054
:10037000456801268E40B5434560456896798E40B4
:10038000B6B235434560C5684F000326BE40B5434D
:10039000C560D5794E00B540C6683543C560491C77
:1003A0001029BFD3F0BDF0B5002300244D07ED0E9A
:1003B00002FA05F3CE1000F1200555F826504E073D
:1003C000F70E0F26BE40B543CF1000F1200646F8C9
:1003D0002750CE1000F1200555F8265045EA0304B9
:1003E000CE1000F1200545F82640F0BD018370478E
:1003F00000BFFEE71CB50121202000F01FF84FF4DC
:10040000C060009001208DF8040000208DF80600E7
:1004100003208DF8050001208DF807006946044887
:10042000FFF779FF4FF4C0610148FFF7DFFF1CBD04
:100430000014024000BFFEE77047000029B1064AE1
:1004400012680243044B1A6004E0034A12688243B4
:10045000014B1A60704700003038024029B1064A4B
:1004600012680243044B1A6004E0034A1268824394
:10047000014B1A6070470000403802401448006881
:1004800040F001001249086000201149083108605D
:100490000F4800680F4908400D4908600E48091DC3
:1004A00008600E480A49843108600B481038091D5D
:1004B00008600748006820F4802005490860002093
:1004C00003490C31086002498C3108607047000014
:1004D00000380240FFFFF6EA103000240030002010
:1004E000F0B5002100220024022500260223324F0D
:1004F0003F6807F00C0121B1042905D0082937D144
:1005000005E02E4F076036E02D4F076033E02A4F9D
:100510003F1F3F68C7F38056274F3F1F3F6807F0D4
:100520003F036EB1264FB7FBF3F7DFF88CC0ACF199
:10053000040CDCF800C0CCF3881C07FB0CF40CE0C6
:100540001E4FB7FBF3F7DFF870C0ACF1040CDCF81A
:1005500000C0CCF3881C07FB0CF4174F3F1F3F680B
:10056000C7F301477F1C7D00B4FBF5F7076002E08D
:10057000124F076000BF00BF0F4F3F6807F0F00148
:100580000909104F7A5C0768D74047600A4F3F68F7
:1005900007F4E051890A0B4F7A5C4768D7408760BF
:1005A000054F3F6807F46041490B064F7A5C476886
:1005B000D740C760F0BD0000083802400024F400B6
:1005C00000127A002E0000200021024A117011460C
:1005D00008707047023802400CB50020019000906E
:1005E0003448006840F480303249086000BF314828
:1005F000006800F4003000900198401C01900098C1
:1006000018B90198B0F5A04FF1D12A48006800F45C
:10061000003010B10120009001E00020009000980F
:10062000012846D123484030006840F080502149DD
:10063000403108602048006840F440401E4908608E
:100640001C48083000681B490831086008460068EB
:1006500040F4004008600846006840F4A05008607C
:100660001648091F0860081F006840F08070091FC5
:10067000086000BF0F48006800F000700028F9D043
:1006800040F205700E4908600A480830006820F002
:1006900003000849083108600846006840F002007D
:1006A000086000BF03480830006800F00C0008280C
:1006B000F8D10CBD003802400070004008544007DB
:1006C000003C0240042808D14FF0E021096941F0C4
:1006D00004014FF0E022116107E04FF0E0210969C9
:1006E00021F004014FF0E0221161704710B502F0D3
:1006F000EFF8012801D001F071FD10BD10B51548CB
:10070000006840F47000134908601348006840F026
:1007100001001149086000200F49083108600E48A7
:1007200000680E4908400C4908600D48091D086022
:10073000081F006820F48020091F08600020064977
:100740000C310860FFF748FF4FF000600149803925
:10075000086010BD88ED00E000380240FFFFF6FEA3
:100760001030002410B540F225511D4800F08EF8DD
:1007700010B31B4800F01EF9C4B21A48008800F4F8
:100780000040C8B91748008800F4804060B10A2CC6
:1007900003D000201349088020E01248008840F46C
:1007A00000401049088019E00D2C06D10D48008842
:1007B00040F480400B49088010E00A480088C0F3EC
:1007C0000D0009490C5407480088401C0549088061
:1007D00008460088C72801DD0020088010BD000001
:1007E000001001402C000020B800002000B587B0A8
:1007F00001210846FFF722FE01214804FFF72EFEE3
:10080000072202211948FFF7CEFD072203211748CE
:10081000FFF7C9FD02208DF8180000208DF81A009E
:100820000C20059001208DF81B0000208DF8190088
:100830004FF4E13001900020ADF810000C20ADF82D
:100840000E000020ADF80C00ADF80A00ADF808006D
:1008500005A90648FFF75FFD01A9054800F040F82B
:100860000121034800F006F807B000BD0000024077
:100870000044004021B1828942F40052828104E0A8
:1008800082894DF6FF731A408281704770B5024627
:10089000002400230025002040F66A16B14200D152
:1008A00000BFC1F3421501F01F03012606FA03F34E
:1008B000012D02D19689334006E0022D02D1168A1D
:1008C000334001E0968A33400C12012606FA04F404
:1008D0001688344013B10CB1012000E0002070BD37
:1008E0002DE9FF4705460E460024A14600BFA0465D
:1008F000B08900B100BF2C8A24F44054F08804432E
:100900002C82AC8941F20C608443B0883189084361
:10091000718908430443AC81AC8A24F44074B089E3
:100920000443AC826846FFF7DBFD2048854202D0D5
:100930001F48854202D1DDF80C9001E0DDF80890F7
:10094000A88900F4004040B109EBC90000EB091090
:1009500031684900B0FBF1F707E009EBC90000EB93
:10096000091031688900B0FBF1F76420B7FBF0F0A3
:1009700004012009642101FB1078A88900F40040DB
:1009800040B1322000EBC800B0FBF1F000F00700EE
:10099000044308E0322000EB08106421B0FBF1F0C2
:1009A00000F00F0004432C81BDE8FF8700100140D8
:1009B0000014014001468888C0F30800704700BF5A
:1009C000FEE700000FB4054B10B503A9044A0298D6
:1009D00000F018F810BC5DF814FB0000010C0008D2
:1009E000B400002002E008C8121F08C1002AFAD192
:1009F00070477047002001E001C1121F002AFBD19F
:100A0000704700002DE9FF4F8BB09A460F46054610
:100A1000002606E025280BD052460D9990476D1C04
:100A2000761C28780028F5D10FB03046BDE8F08F4D
:100A30000024A0460122604900E0044315F8013F6C
:100A4000203B02FA03F00842F7D128782E2817D16C
:100A500015F8010F44F004042A280ED06FF02F027D
:100A60002878A0F1300109290AD808EB880102EBA7
:100A7000410100EB01086D1CF2E757F8048B6D1C77
:100A8000287869283ED006DC0028CDD063280BD01A
:100A9000642804D136E0732810D075284BD0524614
:100AA0000D999047761C85E017F8040B8DF800002F
:100AB00000208DF80100E946012003E057F8049B6F
:100AC0004FF0FF3061074FF0000401D40AE0641CCE
:100AD00044450DDA8442FADB19F804100029F6D1F6
:100AE00006E0641C8442FCDB19F804100029F8D1EC
:100AF000264404E019F8010B52460D999047641EF4
:100B0000F8D257E001CF4FF00A0B002802DA40423A
:100B10002D2102E0210504D52B218DF8241001217F
:100B200003E0E10705D02021F7E70DF12009089146
:100B30000CE00021F9E701CF4FF00A0BF9E7594625
:100B4000FFF7BEFB01F1300209F8012D0028F6D1B4
:100B5000ADEB090000F1200B600701D44FF0010854
:100B6000D84502DDA8EB0B0000E000208046002401
:100B700006E009A85246005D0D999047641C761C5A
:100B800008988442F5DB04E0302052460D999047E6
:100B9000761CB8F10001A8F10108F5DC05E019F8B0
:100BA000010B52460D999047761CBBF10001ABF149
:100BB000010BF4DC6D1C34E70928010070B5044614
:100BC0000420FFF77FFD0C48047025464FF47A702F
:100BD00045430120094908804FF0E020006940F0BA
:100BE00002004FF0E021086108464561006940F0CD
:100BF0000100086170BD0000280000202A000020CC
:100C000000BF054A128802F04002002AF9D0C2B2A1
:100C1000014B1B1D1A807047004400401CB5A820E2
:100C2000FFF7CCFF00F0C0F900220421052001F0FD
:100C3000EFFA124908601248012164234A02CDE903
:100C4000001010A1114801F013FE11480121C82322
:100C50004A02CDE900100FA10C4801F009FE0F482F
:100C6000022100230A02CDE900100DA10F4801F076
:100C7000FFFD01F053F900201CBD00002000002002
:100C80001400002073656E6465723100B5190008A8
:100C90001800002073656E64657232001C0000202D
:100CA000526563656976657200000000611900088D
:100CB0002DE9F04105460E461C4807681C480068AF
:100CC000001D00F091FE50B91948006890F82C10F2
:100CD0000120884017490968814316480160681C53
:100CE00038B936B112480168091D134800F0BAFE40
:100CF0001AE07C190E4800684460BC4207D20C48D8
:100D00000168091D0D48006800F092FE0CE00848DB
:100D10000168091D0A48006800F08AFE0948006859
:100D2000844201D207480460BDE8F08154000020ED
:100D300040000020580000209004002048000020BF
:100D4000440000207000002010B5044600F096FE1C
:100D500024480068401C234908602348006840B9C3
:100D6000214804600846006801280DD100F0FAF916
:100D70000AE01E48006838B91B480068C06AE16A8A
:100D8000884201D81848046019480068401C184976
:100D9000086008460068606494F82C1001208840C0
:100DA00014490968084313490860E16A01EB8101AD
:100DB000114A02EB8100211D00F054FE00F0A2FE5A
:100DC0000A48006868B108480068C06AE16A884259
:100DD00007D24FF0805009490860BFF34F8FBFF32F
:100DE0006F8F10BD50000020400000205C000020EC
:100DF0006C00002058000020C001002004ED00E03D
:100E000010B500F03BFE10480068D0B90F4800F064
:100E1000FFFD0F4800F0FCFD0C480E4908600C482F
:100E20000D49086000221021052001F0F1F9064962
:100E300008600846006820B108A10348006800F077
:100E400055FF00F05FFE10BD84000020A4040020C8
:100E5000B80400207C00002080000020546D7251F6
:100E60000000000070B523E001F0AEF81348006800
:100E700008B9012000E00020054601F0B5FEBDB92B
:100E800000F0FCFD0D48C068C468201D00F0ACFDFA
:100E90000B480068401E0A4908600A480068401E66
:100EA0000849086000F02EFE204600F060F800BF00
:100EB000044800680028D7D170BD00007C040020E1
:100EC000500000204C00002070B504460D46206CF8
:100ED00070B1216CE0680844E0606168E0688842B5
:100EE00001D32068E0602846226CE168FFF7C4F96E
:100EF00070BD2DE9F04104460F4615464FF000083D
:100F0000A66B206C40B9206860BB606801F0A6FD4C
:100F100080460020606025E07DB93946226CA068DB
:100F2000FFF7AAF9216CA0680844A060D4E9011079
:100F3000884217D32068A06014E03946226CE0682C
:100F4000FFF79AF9216CE068401AE0602168E068D8
:100F5000884203D2216C6068401AE060022D01D102
:100F600006B1761E701CA0634046BDE8F08110B546
:100F70000446206B00F0FEFD204600F0FBFD10BD96
:100F80000146084A126812680AB9012200E00022EC
:100F90000A600A6822B9034A1268D268106800E041
:100FA000002070477C00002010B5FFF767FA012091
:100FB000FFF70AFBFFF71EFAFFF718FC10BD000051
:100FC00030B54FF4A043174800F007042CB1C01D02
:100FD00020F00700134C041B1B1B0246124C22601E
:100FE0000024114D6C60D018083820F007000F4C19
:100FF000206000240D4D2D686C600C4D2D682C6018
:101000001146441A4C60094C24680C60084D4C6829
:101010002C60084D4C682C604FF00044064D2C604D
:1010200030BD0000CC04002090000020980000207B
:10103000A00000209C000020A400002000BFFFF7BB
:1010400011FF064800680128F9D94FF08050044983
:101050000860BFF34F8FBFF36F8FF0E7C001002030
:1010600004ED00E02DE9F04106460D46174698468E
:10107000069C0DB9246000E02760E6632564012129
:10108000204601F0E3F984F850800020A064BDE818
:10109000F08100002DE9F05F82460F4690469B46A6
:1010A0000A9E0C9C4FEA8801A522206BFFF7F6F8F8
:1010B000A8F10100216B01EB800929F0070909F073
:1010C000070008B9012000E0002028B940F22B32C7
:1010D0001BA120A0FFF776FC002507E0795D04F155
:1010E00034004155785D00B902E06D1C102DF5D338
:1010F00000BF002143200155202E00D31F26E662A9
:10110000E66400202065201D00F08FFC04F118002B
:1011100000F08BFC2461C6F12000A0616462002015
:10112000606584F858005A465146484600F002FC73
:1011300020600B9808B10B980460BDE8F09F000098
:101140002E2E5C4672656552544F535C7461736B0E
:10115000732E63004572726F723A25732C25640DED
:101160000A00000010B5002407E004EB84010F4AD8
:1011700002EB810000F04CFC641C202CF5D30C48E1
:1011800000F046FC0B4800F043FC0B4800F040FC2C
:101190000A4800F03DFC0A4800F03AFC04480949BE
:1011A000086004480849086010BD0000C001002024
:1011B0004004002054040020680400207C04002027
:1011C00090040020440000204800002010B5014693
:1011D000164800E0006803688B42FBD30246436870
:1011E00013448B4204D143684C6823444360014656
:1011F0000A464B6813440468A34211D10C4C03689F
:101200002468A34208D04B680468646823444B6098
:1012100003681B680B6005E0054B1B680B6001E071
:1012200003680B60884200D0016010BD9000002070
:10123000980000202DE9F04104460D4616461F4651
:101240004FF0000865602461B5420CD8F01BA1691D
:10125000884202D34FF0010811E0211D09480068BF
:1012600000F0E6FB0BE0BE4204D2BD4202D34FF0D9
:10127000010804E0211D0448006800F0D9FB404645
:10128000BDE8F081800000207C00002070B505469C
:1012900000F0F4FBA86B08B9012400E0002400F082
:1012A00031FC204670BD70B5054600F0E7FBA86B29
:1012B000E96B884201D1012400E0002400F022FC07
:1012C000204670BD2DE9F3410D460098846C00273F
:1012D0002CB940F6CE121AA11EA0FFF773FBA06B2B
:1012E000E16B884201D2012000E0002028B940F6DD
:1012F000CF1213A117A0FFF765FBA06BE16B88422B
:101300001BD294F945602A4669462046FFF7F1FD55
:101310000746701C60B9606A08B9012000E000202F
:1013200050B904F1240001F005FC28B1012703E0C5
:10133000701C40B284F8450000BF3846BDE8FC810F
:101340002E2E5C4672656552544F535C71756575FF
:10135000652E63004572726F723A25732C25640DF9
:101360000A000000F8B505460F4613480068C0683B
:10137000C468201D00F038FBE069012818D1A0697D
:1013800041192B463A462046FFF754FF80B1002012
:1013900003462A4601460090204601F0EFFC06462F
:1013A0002EB94FF4027205A10AA0FFF70BFB00BF94
:1013B0002046616A8847F8BD7C0000202E2E5C46DE
:1013C00072656552544F535C74696D6572732E6318
:1013D000000000004572726F723A25732C25640D6F
:1013E0000A000000F0B587B070E0039800280CDA1E
:1013F00004AE2EB940F2E7223AA140A0FFF7E2FA8C
:10140000D6E90020B168904700BF039800285DDB53
:10141000059C606908B9012000E0002010B9201D7A
:1014200000F0E2FA02A800F0C7F8054603980A287F
:101430004AD2DFE800F00905072C2E4506082D2FBB
:1014400000BF00BF00BF00BF0498A2698118034617
:101450002A462046FFF7EEFEC0B12046616A884763
:10146000E069012812D1002000900498A169421877
:1014700000231946204601F081FC07462FB940F2AF
:10148000213218A11DA0FFF79DFA00BF1DE000BF8B
:101490001BE000BF0498A061A06908B1012000E032
:1014A000002028B94FF44E720EA114A0FFF78AFA5B
:1014B000A06941192B462A462046FFF7BBFE04E0EF
:1014C000204600F057FB00E000BF00BF00231A4693
:1014D00003A90E48006800F0D5FE002885D107B0AA
:1014E000F0BD00002E2E5C4672656552544F535C71
:1014F00074696D6572732E63000000004572726F2F
:10150000723A25732C25640D0A0000008400002027
:10151000F8B505460C4600F057FD684600F04CF85B
:101520000646009820BB44B9B54206D801F05CFBE2
:1015300031462846FFF716FF1CE03CB10E48006814
:10154000006808B9012000E000200446A91B2246DB
:101550000A48006800F0E0FB01F046FB50B94FF08C
:10156000805007490860BFF34F8FBFF36F8F01E0D2
:1015700001F03AFBF8BD000080000020840000204C
:1015800004ED00E00A490968096809B9012100E091
:10159000002121B14FF0FF31064A116006E00449F5
:1015A0000968C968C868034A41681160704700004B
:1015B000440000207000002070B5044601F098F946
:1015C000054607480068854204D200F00BF8012068
:1015D000206001E00020206001480560284670BDC1
:1015E0008C0000202DE9F8432DE021480068C068F8
:1015F00005681F480068C068C468201D00F0F4F941
:101600002046616A8847E06901281CD1A069461913
:10161000AE4207D966602461211D1548006800F0BC
:1016200007FA10E0002003462A46014600902046B3
:1016300001F0A4FB07462FB940F292320DA113A08E
:10164000FFF7C0F900BF0A480068006808B9012028
:1016500000E000200028C8D00548D0F800800F48DE
:101660000068034908600D48C0F80080BDE8F883B1
:101670007C0000202E2E5C4672656552544F535CF0
:1016800074696D6572732E63000000004572726F9D
:10169000723A25732C25640D0A000000800000209A
:1016A0000C480068401C08B9012000E0002028B95F
:1016B00040F20F1208A113A0FFF784F900BF5020D9
:1016C00080F31188BFF34F8FBFF36F8F00BF00BF50
:1016D000FEE70000A80000202E2E5C4672656552D1
:1016E000544F535C706F727461626C655C52564407
:1016F000535C41524D5F434D34465C706F72742EA3
:10170000630000004572726F723A25732C25640DD8
:101710000A00000008B500BF6846FFF731FC044628
:1017200020460099FFF7F4FEFFF75CFEF4E770B582
:10173000044600F0A3F994F945501AE0A06C38B1C2
:1017400000212046FFF7BEFD88B100F00BFB0EE044
:10175000606A08B9012000E0002038B904F12400D3
:1017600001F0E8F918B100F0FDFA00E003E0681EAE
:1017700045B2002DE2DC00BFFF2084F8450000F0F8
:10178000C1F900F07BF994F9445010E0206908B9E0
:10179000012000E0002048B904F1100001F0CAF96E
:1017A00008B100F0DFFA681E45B200E001E0002D4C
:1017B000ECDC00BFFF2084F8440000F0A3F970BD0A
:1017C0002DE9F04104464FF0000800F0FDFB3E48D3
:1017D000006808B9FFF7F4FB3C4800682040002887
:1017E0005FD1A4B1083404F0070080B104F0070011
:1017F000C0F10800044404F0070008B9012000E02B
:10180000002020B9BF2232A13BA0FFF7DBF8002C5B
:1018100047D03D480068844243D83C4E3046056876
:1018200001E02E462D686868A04202D22868002890
:10183000F7D125480068854233D0306800F10808A8
:10184000286830606868001B102813D92F1907F02A
:10185000070008B9012000E0002020B9EC221CA1FB
:1018600025A0FFF7AFF86868001B78606C60384609
:10187000FFF7ACFC244968680968081A2249086027
:101880000846006822490968884203D21E48006859
:101890001F4908600D4968680968084368600020AE
:1018A000286001F0A1F908F0070008B9012000E064
:1018B000002028B94FF4967205A10FA0FFF782F817
:1018C0004046BDE8F081000098000020A400002000
:1018D0002E2E5C4672656552544F535C706F727465
:1018E00061626C655C4D656D4D616E675C686561DC
:1018F000705F342E630000004572726F723A257378
:101900002C25640D0A0000009C000020900000209F
:10191000A00000200648006830B10549096801F1BF
:101920005000096D491C01600148006870470000C3
:1019300040000020001F4FF080730360001F21F063
:1019400001030360001F054B036014380260001F91
:101950006FF002030360203870470000A1160008F2
:1019600008B50A2500BF00232A46694607480068D3
:1019700000F088FC0446012C04D1694604A0FFF75E
:1019800021F8F0E707A0FFF71DF8ECE720000020A2
:101990005265636569766544617461203D20256404
:1019A0000D0A000052656365697665204572726FA5
:1019B0007200000005460A2600BF00233246294671
:1019C0000548006800F09AFD0446012CF5D003A0FC
:1019D000FEF7F8FFF1E700002000002053656E6479
:1019E000204572726F72000001460A69D1E9013028
:1019F0009860D1E9010358605068884201D1886835
:101A00005060002008611068401E10601068704728
:101A100000F1080141604FF0FF31816000F10801E1
:101A2000C1600161002101607047002101617047C0
:101A300010B502460B685C1C0CB9106907E002F196
:101A4000080000E04068446824689C42FAD9446871
:101A50004C604C68A160886041600A611468641C35
:101A6000146010BD42684A6093688B609368596047
:101A70009160086103685B1C0360704710B500BF8C
:101A8000502080F31188BFF34F8FBFF36F8F00BFDB
:101A90000B480068401C0A49086008460068012895
:101AA0000DD108480068C0B208B9012000E000204C
:101AB00028B940F2B91204A10EA0FEF783FF10BDB1
:101AC000A800002004ED00E02E2E5C4672656552F1
:101AD000544F535C706F727461626C655C52564413
:101AE000535C41524D5F434D34465C706F72742EAF
:101AF000630000004572726F723A25732C25640DE5
:101B00000A00000010B50B48006828B94FF4E072D5
:101B100009A114A0FEF756FF06480068401E0549BB
:101B200008600846006820B9002080F3118800BFD3
:101B300000BF10BDA80000202E2E5C4672656552C5
:101B4000544F535C706F727461626C655C525644A2
:101B5000535C41524D5F434D34465C706F72742E3E
:101B6000630000004572726F723A25732C25640D74
:101B70000A00000070B506463546002E35D0083DF7
:101B80002C461A4960680968084008B1012000E045
:101B9000002028B94FF4A07215A11FA0FEF712FF74
:101BA000206808B9012000E0002028B940F2411265
:101BB0000FA119A0FEF706FF0C49606809680840EC
:101BC00098B1206888B909496068096888436060ED
:101BD00000F0FAF91449606809680844124908607D
:101BE0002046FFF7F3FA00F0FFFF70BDA4000020CD
:101BF0002E2E5C4672656552544F535C706F727442
:101C000061626C655C4D656D4D616E675C686561B8
:101C1000705F342E630000004572726F723A257354
:101C20002C25640D0A0000009C0000200648006876
:101C30004FF47A71B0FBF1F0401E4FF0E0214861A3
:101C400007200861704700000000002070B5FEF713
:101C5000FDFA0546102D11D305F1E02090F8F04370
:101C600010480078844201DB012000E0002028B900
:101C70004FF440720CA117A0FEF7A4FE19480068AB
:101C800000F4E06018490968884201D8012000E0AA
:101C9000002028B94FF4447203A10EA0FEF792FE73
:101CA00070BD0000AC0000202E2E5C4672656552AF
:101CB000544F535C706F727461626C655C52564431
:101CC000535C41524D5F434D34465C706F72742ECD
:101CD000630000004572726F723A25732C25640D03
:101CE0000A0000000CED00E0B000002002460020D9
:101CF0000BE0084B53F8303033B9064B43F8301043
:101D000003EBC0035A6002E0401C0828F1D300BF77
:101D100070470000800100202DE9F04105460E4685
:101D200017462C46FFF7AAFE94F94400401C10B950
:101D3000002084F8440094F94500401C10B90020AC
:101D400084F84500FFF7DEFEA06B28B93A4631461D
:101D500004F1240000F036F82046FFF7E8FCBDE867
:101D6000F0810000012001490860704764000020F4
:101D700070B504460D462CB940F6063207A10CA0FA
:101D8000FEF720FE0E48016818312046FFF750FE8E
:101D900001212846FEF78CFF70BD00002E2E5C4608
:101DA00072656552544F535C7461736B732E63009C
:101DB0004572726F723A25732C25640D0A0000007B
:101DC0004000002070B505460E4614462DB940F679
:101DD000313209A10DA0FEF7F5FD10480168183158
:101DE0002846FFF73FFE0CB14FF0FF362146304644
:101DF000FEF75EFF70BD00002E2E5C4672656552D8
:101E0000544F535C7461736B732E63004572726F31
:101E1000723A25732C25640D0A0000004000002052
:101E200070B505462C46002D4BD02649E06A09685E
:101E3000C96A884245D2A06900F0004028B921480B
:101E40000068C06AC0F12000A061E16A01EB810175
:101E50001D4A02EB81016069884201D1012000E046
:101E6000002050B3201DFFF7BFFD78B9E06A00EBFA
:101E70008000154951F8200040B994F82C10012039
:101E80008840124909688143104801600D48006884
:101E9000C06AE06294F82C10012088400B49096860
:101EA00008430A490860E16A01EB8101064A02EB36
:101EB0008100211DFFF7D6FD03E002480068C06ADB
:101EC000E06270BD40000020C001002058000020EA
:101ED00010B504462CB940F6C13205A109A0FEF7A1
:101EE00071FD0C48006820600B480068606010BD00
:101EF0002E2E5C4672656552544F535C7461736B51
:101F0000732E63004572726F723A25732C25640D2F
:101F10000A00000068000020540000201CB51A4888
:101F200000210B468222CDE9001018A1194800F0CB
:101F30009FFC0446012C02D100F0E6FE0446012C71
:101F400015D100BF502080F31188BFF34F8FBFF32E
:101F50006F8F00BF4FF0FF300F49086001200F491D
:101F6000086000200E49086000F08AF80BE0601C51
:101F700008B1012000E0002028B940F2847209A1D4
:101F80000DA0FEF71FFD1CBD7400002049444C4508
:101F9000000000003D100008700000205C000020E0
:101FA000540000202E2E5C4672656552544F535CDF
:101FB0007461736B732E63004572726F723A25738E
:101FC0002C25640D0A00000002480068401C0149ED
:101FD000086070477800002010B51B48006818B1F1
:101FE00001201A4908602DE00020184908601848AF
:101FF0000068B0FA80F0C0F11F0404EB84001549BA
:1020000051F8200008B1012000E0002028B940F676
:10201000F62211A115A0FEF7D5FC04EB84010D4AB0
:1020200002EB810041684968416000F108014268A3
:102030008A4202D14168496841604168C9680F4AD3
:10204000116000BF10BD0000780000206400002077
:1020500058000020C00100202E2E5C46726565529B
:10206000544F535C7461736B732E63004572726FCF
:10207000723A25732C25640D0A00000040000020F0
:102080001CB5404800684049884201D0012000E06A
:10209000002028B940F259123CA147A0FEF792FC5B
:1020A000384800683849491E884201D0012000E0C4
:1020B000002028B94FF4AD7234A13FA0FEF782FC96
:1020C000414C204600780190FF20214608700846C8
:1020D000007800909DF8000000F0F0009DF80010DE
:1020E000884201D1012000E0002028B940F273129B
:1020F00026A131A0FEF766FC9DF8000000F050001C
:102100003249087007203249086009E03048006809
:10211000401E2F4908609DF800004006000E009008
:102120009DF8000000F080008028EFD0284800686B
:102130000002274908600846008800F4E060086053
:102140002149019808700F482030006840F4700061
:102150000C49203108600846006840F07040086073
:10216000FFF764FD00201B490860FEF737F81A48A6
:10217000006840F0404018490860FEF71FF8002052
:102180001CBD000000ED00E071C20F412E2E5C4628
:1021900072656552544F535C706F727461626C6506
:1021A0005C525644535C41524D5F434D34465C7023
:1021B0006F72742E630000004572726F723A25735D
:1021C0002C25640D0A00000000E400E0AC000020B3
:1021D000B0000020A800002034EF00E010B500BFE0
:1021E000502080F31188BFF34F8FBFF36F8F00BF74
:1021F00000F084FB18B14FF080500449086000BF24
:10220000002080F3118800BF10BD000004ED00E045
:102210002DE9F84305460E4690460DB1012000E039
:10222000002028B94FF4C4720DA112A0FEF7CAFB1A
:102230000EB9002701E005FB06F707F15400FFF790
:10224000BFFA044644B104F1540943464A463146B4
:1022500028460094FEF706FF2046BDE8F8830000FC
:102260002E2E5C4672656552544F535C71756575D0
:10227000652E63004572726F723A25732C25640DCA
:102280000A0000002DE9FF4782B005460E461F46B2
:102290004FF0000A2C462CB940F2DC4261A166A046
:1022A000FEF790FB0EB9206C08B9012000E0002079
:1022B00028B940F2DD425BA15FA0FEF783FB00F08E
:1022C00007FB08B9049808B9012000E0002028B9EC
:1022D0004FF49C6253A158A0FEF774FB00BFFFF7B8
:1022E000CDFBD4F83890B9F1000F3DD0D4F80C8074
:1022F00031462046FEF7E8FDDFB9A9F10100A063F1
:10230000206810B9FFF706FB6060206908B901205A
:1023100000E0002010BB04F1100000F00BFCE8B15D
:102320004FF0805048490860BFF34F8FBFF36F8F65
:1023300014E0C4F80C80606A08B9012000E00020B5
:1023400060B904F1240000F0F5FB38B14FF0805083
:102350003D490860BFF34F8FBFF36F8FFFF7D2FB8C
:10236000012006B0BDE8F087049818B9FFF7CAFB52
:102370000020F6E7BAF1000F04D16846FFF7A8FD88
:102380004FF0010AFFF7BEFBFFF71EFEFFF776FBDB
:1023900094F94400401C10B9002084F8440094F9DA
:1023A0004500401C10B9002084F84500FFF7AAFB47
:1023B00004A9684600F00CFA40BB2046FEF766FF11
:1023C000F0B1206830B9FFF759FB6068FFF728FDCE
:1023D000FFF798FB04F124000499FFF7C9FC20469D
:1023E000FFF7A5F900F000FC00287FF478AF4FF06C
:1023F000805015490860BFF34F8FBFF36F8F6EE7B2
:102400002046FFF794F900F0EFFB68E72046FFF75E
:102410008EF900F0E9FB2046FEF738FF0028EED0E9
:1024200000209EE72E2E5C4672656552544F535C29
:1024300071756575652E63004572726F723A25730A
:102440002C25640D0A00000004ED00E070B505467F
:102450000E462C462CB940F21B121EA122A0FEF7FC
:10246000B1FAFFF70BFBD4E90F12206801FB020061
:1024700060600020A0632068A060E06B401E226CBA
:10248000216800FB0210E060FF2084F8440084F81B
:1024900045009EB9206908B9012000E00020A8B9D4
:1024A00004F1100000F046FB80B14FF0805012495B
:1024B0000860BFF34F8FBFF36F8F07E004F1100088
:1024C000FFF7A6FA04F12400FFF7A2FAFFF71AFBC0
:1024D000012070BD2E2E5C4672656552544F535CD0
:1024E00071756575652E63004572726F723A25735A
:1024F0002C25640D0A00000004ED00E02DE9FF43E7
:1025000083B0064688461D464FF0000934462CB974
:1025100040F2D92260A165A0FEF754FAB8F1000F8D
:1025200001D1206C08B9012000E0002028B940F258
:10253000DA2259A15DA0FEF745FA022D02D1E06B27
:10254000012801D1012000E0002028B940F2DB225F
:1025500051A156A0FEF736FA00F0BAF908B905986D
:1025600008B9012000E0002028B940F2DE224AA18B
:102570004EA0FEF727FA00BFFFF780FAA06BE16BD1
:10258000884201D3022D38D12A4641462046FEF723
:10259000B0FC0746A06C68B129462046FEF792FEC3
:1025A00028B34FF0805045490860BFF34F8FBFF309
:1025B0006F8F1CE0606A08B9012000E0002068B954
:1025C00004F1240000F0B6FA88B14FF080503B4986
:1025D0000860BFF34F8FBFF36F8F08E03FB14FF03C
:1025E000805036490860BFF34F8FBFF36F8FFFF7FE
:1025F00089FA012007B0BDE8F083059818B9FFF704
:1026000081FA0020F6E7B9F1000F04D101A8FFF725
:102610005FFC4FF00109FFF775FAFFF7D5FCFFF7F4
:102620002DFA94F94400401C10B9002084F84400AD
:1026300094F94500401C10B9002084F84500FFF7CC
:1026400061FA05A901A800F0C3F8F0B92046FEF729
:102650002AFEA0B104F110000599FFF789FB20467E
:10266000FFF765F800F0C0FA002885D14FF08050E0
:1026700012490860BFF34F8FBFF36F8F7CE720468E
:10268000FFF755F800F0B0FA76E72046FFF74FF86D
:1026900000F0AAFA0020ADE72E2E5C467265655266
:1026A000544F535C71756575652E63004572726F8A
:1026B000723A25732C25640D0A00000004ED00E039
:1026C0002DE9F05F80468A4615461E4644462CB9E1
:1026D00040F29F3235A13AA0FEF774F9BAF1000F2B
:1026E00001D1206C08B9012000E0002028B94FF486
:1026F00068722EA132A0FEF765F9022E02D1E06BBE
:10270000012801D1012000E0002028B940F2A132C7
:1027100026A12BA0FEF756F9FFF798FA00BF50212B
:10272000EFF3118081F31188BFF34F8FBFF36F8FE9
:1027300000BF0746A06BE16B884201D3022E2BD16C
:1027400094F945B0324651462046FEF7D2FB0BF1D4
:102750000100C8B9A06C40B131462046FEF7B2FD79
:10276000B8B1B5B10120286013E0606A08B9012052
:1027700000E0002068B904F1240000F0DBF940B16A
:102780003DB10120286004E00BF1010040B284F863
:1027900045004FF0010901E04FF0000900BF87F349
:1027A000118800BF4846BDE8F09F00002E2E5C4611
:1027B00072656552544F535C71756575652E630083
:1027C0004572726F723A25732C25640D0A00000061
:1027D0002DE9F04104460D462CB940F6CB3219A143
:1027E0001DA0FEF7EFF82DB940F6CC3215A11AA0C6
:1027F000FEF7E8F8FFF742F91B4807682868401C15
:1028000008B9002619E0194920680968884204D0EF
:102810006068B84201D801260FE06068381A29685C
:10282000884209D228686168791A401A28602046CF
:10283000FFF74EFB002600E00126FFF763F9304664
:10284000BDE8F0812E2E5C4672656552544F535C94
:102850007461736B732E63004572726F723A2573E5
:102860002C25640D0A0000005400002068000020A0
:102870002DE9FF4F85B0804689461746DDE912AB4A
:10288000B800FEF79DFF064656B15C20FEF798FFA4
:1028900004460CB1266304E03046FFF76BF900E014
:1028A00000247CB10020CDE900ABCDE902403A46DE
:1028B00049464046089BFEF7EDFB2046FEF744FAEA
:1028C000012501E04FF0FF35284609B0BDE8F08F43
:1028D0000549096809B9012005E00449096809B9F1
:1028E000022000E0002070475C00002078000020FB
:1028F0000149086870470000540000202DE9F041AC
:102900004FF0000841480068002872D14048006834
:10291000451C3F480560EDB93E480068006808B9AD
:10292000012000E0002028B940F6D9123AA13FA0CA
:10293000FEF748F83748076840480068354908609E
:102940003E4807603E480068401C3D490860FEF76D
:1029500019FE00BF3B48006885423CD300BF2D48AC
:102960000068006808B9012000E0002020B14FF0A5
:10297000FF30344908602DE026480068C068C4680C
:102980006668B54202D22F48066023E0201DFFF79B
:102990002BF8A06A18B104F11800FFF725F894F895
:1029A0002C100120884028490968084326490860FE
:1029B000E16A01EB8101254A02EB8100211DFFF74D
:1029C00051F82349E06A0968C96A8842C7D34FF0C1
:1029D0000108C4E700BF1E480068C06A00EB800021
:1029E0001A4951F82000012801D94FF0010805E0EB
:1029F000FFE718480068401C164908601648006840
:102A000008B14FF001084046BDE8F0817800002091
:102A100054000020440000202E2E5C467265655252
:102A2000544F535C7461736B732E63004572726F05
:102A3000723A25732C25640D0A000000480000201E
:102A4000680000207000002058000020C001002015
:102A500040000020600000206400002070B50546A2
:102A60002C460026002D4BD026480068844201D118
:102A7000012000E0002028B940F6C76222A127A06B
:102A8000FDF7A0FF206D28B940F6C9621EA123A062
:102A9000FDF798FF206D401E2065E16CE06A8842DA
:102AA0002ED0206D60BB201DFEF79EFF78B9E06A36
:102AB00000EB80001D4951F8200040B994F82C101B
:102AC000012088401A490968814319480160E06C77
:102AD000E062E06AC0F12000A06194F82C100120AF
:102AE000884013490968084311490860E16A01EB0D
:102AF00081010E4A02EB8100211DFEF7B3FF012682
:102B0000304670BD400000202E2E5C467265655236
:102B1000544F535C7461736B732E63004572726F14
:102B2000723A25732C25640D0A000000C0010020B4
:102B30005800002070B50646F068C4682CB940F60D
:102B400061321AA11EA0FDF73DFF04F11800FEF747
:102B50004BFF1F480068A8B9201DFEF745FF94F8F9
:102B60002C10012088401B49096808431949086056
:102B7000E16A01EB8101184A02EB8100211DFEF799
:102B800071FF04E004F118011448FEF76BFF1449CB
:102B9000E06A0968C96A884204D9012501201149FF
:102BA000086000E00025284670BD00002E2E5C461F
:102BB00072656552544F535C7461736B732E63007E
:102BC0004572726F723A25732C25640D0A0000005D
:102BD0007800002058000020C00100206804002078
:102BE000400000206400002070B500240026344816
:102BF000006828B94FF4FD6232A137A0FDF7E2FE6C
:102C0000FEF73CFF2E480068401E2D49086008462C
:102C1000006800284FD13448006800284BD024E0D9
:102C20003248C068C46804F11800FEF7DDFE201DBC
:102C3000FEF7DAFE94F82C10012088402C49096830
:102C400008432B490860E16A01EB8101294A02EB44
:102C50008100211DFEF706FF2749E06A0968C96A5D
:102C6000884202D30120254908602048006808B93D
:102C7000012000E000200028D2D00CB1FEF782FC39
:102C80001F48056865B100BFFFF738FE10B101208D
:102C90001A4908606D1E002DF6D100201849086001
:102CA0001648006838B10126300716490860BFF39E
:102CB0004F8FBFF36F8FFEF725FF304670BD0000CA
:102CC000780000202E2E5C4672656552544F535C8E
:102CD0007461736B732E63004572726F723A257361
:102CE0002C25640D0A00000050000020680400201C
:102CF00058000020C0010020400000206400002097
:102D00006000002004ED00E01CB50024FEF778F818
:102D10000B48006858B10B481F2100234FF4827202
:102D2000CDE9001008A10A48FFF7A2FD04462CB91E
:102D300040F2331207A10DA0FDF744FE20461CBD52
:102D40008400002088000020546D722053766300B8
:102D5000151700082E2E5C4672656552544F535C61
:102D600074696D6572732E63000000004572726FA6
:102D7000723A25732C25640D0A0000002DE9FF47E7
:102D800004460D4616461F46DDF830804FF0000918
:102D90002CB94FF4D37217A11CA0FDF713FE1F48E6
:102DA000006810B3009501960294062D15DAFFF71E
:102DB0008FFD022808D10023424669461748006863
:102DC000FFF79CFB814610E000231A466946134832
:102DD0000068FFF793FB814607E000233A46694607
:102DE0000E480068FFF76CFC8146484604B0BDE819
:102DF000F08700002E2E5C4672656552544F535C7E
:102E000074696D6572732E63000000004572726F05
:102E1000723A25732C25640D0A00000084000020FE
:102E2000402E000800000020B8000000E40900085F
:102E3000F82E0008B800002018580000F409000817
:102E4000007A030A000000000000000001020304F1
:102E50000607080900000000000000000000000054
:102E60000000000000000000000000000000000062
:102E70000000010203040102030406070809000020
:102E80000000000000000000000000000000000042
:102E90000000000000000000000000000000000032
:102EA0000000000000000000000000000000000022
:102EB0000000000000000000000000000000000012
:102EC0000000000000000000000000000000000002
:102ED00000000000000000000000000000000000F2
:102EE0000000000000000000AAAAAAAA000000003A
:082EF0000000000000000000DA
:040000050800018965
:00000001FF
